:020000040800F2
:10000000002900209D010008A5010008A3020008A6
:10001000A9010008AB010008AD01000800000000C4
:10002000000000000000000000000000AF01000818
:10003000B101000800000000EF010008AB29000832
:10004000B7010008B7010008B7010008B7010008B0
:10005000B7010008B70100081B0B0008B701000832
:10006000B7010008B7010008B7010008B701000890
:10007000B7010008B7010008B7010008B701000880
:10008000B7010008B7010008B7010008B701000870
:10009000B7010008B7010008B7010008B701000860
:1000A000B7010008B7010008B7010008B701000850
:1000B000B7010008B7010008B7010008B701000840
:1000C000B7010008B7010008B7010008B701000830
:1000D000B7010008B7010008B7010008B701000820
:1000E000B7010008B7010008B7010008B701000810
:1000F000B7010008B7010008B7010008B701000800
:10010000B7010008B7010008B7010008B7010008EF
:10011000B7010008B7010008B7010008B7010008DF
:10012000B7010008B7010008B7010008B7010008CF
:10013000B7010008B7010008B7010008B7010008BF
:10014000B7010008B7010008B7010008B7010008AF
:10015000B7010008B7010008B7010008B70100089F
:10016000B7010008B7010008B7010008B70100088F
:10017000B7010008B7010008B7010008B70100087F
:10018000B7010008B7010008DFF80CD000F072FBDF
:100190000048004751090008002900200648804710
:1001A00006480047FEE7FEE7FEE7FEE7FEE7FEE75C
:1001B000FEE7FEE7FEE7FEE7BD290008890100082B
:1001C000EFF3108072B6704780F3108870473A4A98
:1001D0001368012B04D04FF001031360374A1060FD
:1001E000374A116037484FF0805101607047EFF394
:1001F000108272B63048016851B34FF000010160BF
:100200002E48016891B1EFF309811EF0100F08BF6D
:1002100021ED108B21E9F00F4FF000041EF0100FBC
:1002200008BF012441F8044D0068016024490968B1
:10023000096808C9B1E8F00F002B18BFB1EC108BAA
:1002400081F309884EF0100E002B18BF2EF0100E0F
:1002500082F310884EF0040E704719490860EFF3DE
:10026000148222F0040282F3148814494FF0000033
:10027000086011494FF00100086013484FF47F01F6
:10028000D0F8002041EA020101600E484FF0805191
:1002900001600E480068006880F3088861B662B6A5
:1002A0007047EFF3098000B504F06EFD5DF804EBD4
:1002B0004EF0040E70470000240F00201C0F002099
:1002C000200F002004ED00E020ED00E008ED00E04C
:1002D00040EA01039B0703D009E008C9121F08C0C8
:1002E000042AFAD203E011F8013B00F8013B521E48
:1002F000F9D270472DE9F04D81EA030404F0004B78
:1003000021F0004514464FF0000A23F0004150EA66
:10031000050220D054EA01021DD0C5F30A57024657
:10032000C5F31303C1F31300C1F30A5640F480155B
:1003300043F48013A7EB0608101BD64608F2FD38DD
:1003400073EB050002D308F1010801E092185B414C
:10035000B8F1000F03DA00200146BDE8F08D00205F
:100360004FF48011064684460EE0171B73EB050719
:1003700005D3121B63EB050306434CEA010C490845
:100380004FEA300092185B4150EA0107EDD152EA82
:10039000030012D082EA040083EA0501084305D075
:1003A000101BAB4106D20122002306E000224FF0D1
:1003B000004302E06FF0010253101AEB06004CEB11
:1003C000085110EB0A0041EB0B01BDE8F04D00F0C5
:1003D000ABB80EB5C10F80EAE0700844CA0700212F
:1003E00040F233438DE80E000A460B4600F0ABF8AE
:1003F00003B000BD01F0004330B421F0004150EAE9
:10040000010206D00A0DA2F56072C1F31301002AA1
:1004100002DC30BC00207047440F44EAC104C10034
:10042000E01830BC00EBC25000F047B830B50B46C6
:10043000014600202022012409E021FA02F59D4214
:1004400005D303FA02F5491B04FA02F52844151EE8
:10045000A2F10102F1DC30BD2DE9F05F054600207C
:1004600092469B4688460646814640241BE0284625
:1004700041464746224600F01EFA53465A46C01AE5
:10048000914110D311461846224600F005FA2D1A64
:1004900067EB01084F4622460120002100F0FCF9DD
:1004A00017EB00094E41201EA4F10104DFDC484691
:1004B00031462A464346BDE8F09F0029A8BF704751
:1004C000401C490008BF20F00100704710B4B0FA8A
:1004D00080FC00FA0CF050EA010404BF10BC704725
:1004E00049B1CCF1200421FA04F411FA0CF118BF3F
:1004F000012121430843A3EB0C01CB1D4FEA00610E
:100500004FEA102042BF002010BC704700EBC350E0
:1005100010440029A4BF10BC7047401C490008BF0C
:1005200020F0010010BC704710B5141E73F10004D8
:1005300008DA401C41F1000192185B411A4301D1D5
:1005400020F0010010BD2DE9F04D92469B4611B1FF
:10055000B1FA81F202E0B0FA80F22032904600F067
:100560009BF904460F4640EA0A0041EA0B01534654
:100570005A46084313D0114653EA010019D0C8F176
:100580004002504600F097F905460E46504659463F
:10059000424600F081F9084305D0012004E02046DE
:1005A0003946BDE8F08D0020054346EAE0762C434D
:1005B00037430A986305E40AA0EB08000022FD0A0D
:1005C00044EA47540A3002D500200146E9E7010514
:1005D00010196941DDE9084500196941BDE8F04D90
:1005E000A2E72DE9FE4F804681EA0300C00F0C46CA
:1005F000009021F0004123F00045B8EB0200A94132
:1006000005D24046214690461C460B46024623F042
:100610000040104347D0270DC7F30A00C3F30A5127
:100620000290401A019040286BDAC3F3130040F4A3
:10063000801B0098924620B10023D2EB030A63EBA3
:100640000B0B01985946C0F14002504600F024F9C6
:1006500006460D4650465946019A00F03CF910EB0B
:1006600008006141002487EA115284EAE7731A43C3
:1006700040D0009A62B3019A012A4FEA075215DC72
:10068000001B61EB02014FF0004202EA0752CDE984
:100690000042001C41F5801132462B46FFF753FF04
:1006A00003B0BDE8F08F40462146F9E7001B61EB3F
:1006B0000201001C41F5801300185B412018A2F5CF
:1006C000001747EB030140EAD570B6196D4111E000
:1006D0006D084FEA360645EAC0754FEA0752001B1F
:1006E00061EB0201001C41F5801149084FEA30001E
:1006F0000019514132462B4603B0BDE8F04FFFF7D9
:1007000013BF0098012240000023D0EB020263EBEC
:10071000E073009821464FEAE074B8EB000061EB0B
:100720000401E9E783F000435BE781F0004158E70B
:100730002DE9FE4F81EA030404F0004421F000415A
:1007400000944FF0000B23F0004350EA01045ED008
:1007500052EA03045BD0C3F30A54C1F30A552C4494
:10076000A4F2F3340194A0FB0254C1F3130141F449
:100770008011C3F3130343F4801301FB024400FB15
:10078000034E840A970A44EA815447EA8357A4FB3C
:10079000076802958D0A05FB07854FEA932C04FB39
:1007A0000C542705029D4FEA065847EA1637B5EB69
:1007B00008056EEB070C870E920E47EA811742EA96
:1007C0008312A7FB0201B6EB0B0164EB00042B0DB7
:1007D00043EA0C335E1844EB1C50DA465146E7FB03
:1007E0000201C5F313044FEA0B3343EA14534FEAF3
:1007F0000432019C43EA0603A4F10C040294009C19
:10080000CDE900B4FFF79FFE03B0BDE8F08F0020F4
:100810000146F9E7C1F30A52C1F3130140F2FF3375
:1008200041F480119A4202DA00200146704740F2FA
:1008300033439A42A2F2334202DC524200F03BB808
:1008400000F02AB830B5041E71F1000404DB4FF04B
:100850000044404264EB0101141E73F1000405DB07
:100860001C464FF00043524263EB0403994208BF19
:10087000904230BD064C074D06E0E06840F00103B1
:1008800094E8070098471034AC42F6D3FFF780FC99
:100890001488000834880008202A04DB203A00FA73
:1008A00002F1002070479140C2F1200320FA03F3C7
:1008B000194390407047202A04DB203A21FA02F0C5
:1008C0000021704721FA02F3D040C2F1200291408A
:1008D000084319467047202A06DBCB17203A41FA15
:1008E00002F043EAE07306E041FA02F3D040C2F1BD
:1008F0002002914008431946704770B58C1810F8D3
:10090000015B15F0070301D110F8013B2A1106D154
:1009100010F8012B03E010F8016B01F8016B5B1E6E
:10092000F9D12B0705D40023521E0DD401F8013B49
:10093000FAE710F8013BCB1A921C03E013F8015BB5
:1009400001F8015B521EF9D5A142D8D3002070BD39
:1009500010B5FFF735FC05F061FB002010BD00006D
:100960001CB50121084601F0EDFB1020009001208C
:100970008DF8040003208DF8050000208DF8060096
:1009800002208DF807006946034800F08DFA102018
:10099000014948831CBD00000000024070B50025DD
:1009A000002413E00A48006818B1681CC5B200248E
:1009B00005E0601CC4B2032C01DD002070BD0F20D7
:1009C00003F01BF8C82D01DB0120F7E7EAE7000080
:1009D0000002404200B587B00121084601F0B2FB99
:1009E0000121102001F0DEFB00208DF81A0001200B
:1009F0008DF81B0002208DF819008DF818000002F8
:100A0000059005A91B4800F04FFA02208DF8180048
:100A10004002059005A9174800F046FA07220A216E
:100A2000144800F089FA07220921124800F084FADC
:100A30004FF4E13001900020ADF80800ADF80A0055
:100A4000ADF80C00ADF810000C20ADF80E0001A9B7
:100A5000094802F007F901F059FA012240F2255144
:100A6000054802F0DAF80121034802F0BDF807B0AA
:100A700000BD000000000240001001402DE9F047D9
:100A800006460F46904699460025444641E07A1BAB
:100A900091B2321B90B24A4600F079FC7A1B91B2B7
:100AA000321990B24A4600F072FC3A1991B2721BA8
:100AB00090B24A4600F06BFC3A1B91B2721B90B2A6
:100AC0004A4600F064FC7A1991B2321990B24A4653
:100AD00000F05DFC3A1B91B2721990B24A4600F0E8
:100AE00056FC3A1991B2721990B24A4600F04FFC86
:100AF0007A1991B2321B90B24A4600F048FC6D1C44
:100B000005FB05F004FB040108FB08F0814200DD51
:100B1000641EA542BBDDBDE8F08710B5012000F0E2
:100B200007F8FFF73BFF08B101F020FF10BD000000
:100B30000149086070470000143C0140002123492E
:100B40008279002A3AD00A46126803689A430B4613
:100B50001A600A1D126803689A430B1D1A60027915
:100B600011440A6803681A430A60184A0832126876
:100B700003689A43154B08331A601A1D12680368FC
:100B80009A43124B0C331A604279102A0ED11A1F65
:100B9000126803681A430D4B08331A601A1D126855
:100BA00003681A43094B0C331A600DE00749427978
:100BB00011440A6803681A430A6005E00279114487
:100BC0000A6803689A430A6070470000003C0140CD
:100BD00070B504460A460026092502B909E0012A33
:100BE00001D1160205E0022A01D1160201E04FF4FC
:100BF000407600F09FF80546092D28D11548006879
:100C000020F44070134908600846006830430860CB
:100C10000846006820F0F80008600846006844F0C4
:100C2000020108430B4908600846006840F4803020
:100C3000086000F07FF805460648006820F00200D2
:100C4000044908600846006820F0F800086028465B
:100C500070BD0000103C024009201349096801F4EE
:100C60008031B1F5803F01D101201CE00E490968B7
:100C700001F0100109B1062015E00B49096801F4E3
:100C8000807109B102200EE00749096801F0E00116
:100C900009B1072007E00449096801F0020109B120
:100CA000082000E0092070470C3C0240034800681F
:100CB00040F000400149086070470000103C0240CD
:100CC00030B502460C46092500F034F80546092DDA
:100CD00019D10E48006820F440700C49086008469D
:100CE000006840F4007008600846006840F00100A9
:100CF0000860146000F01EF805460448006820F003
:100D0000010002490860284630BD0000103C024046
:100D10000548006800F0004028B1044802490C3939
:100D20000860034808607047103C02402301674593
:100D3000AB89EFCD08B509200090FFF78DFF00903B
:100D400002E0FFF789FF00909DF800000128F8D02D
:100D50009DF8000008BD00002DED028B8EB06420D0
:100D600004F0B1FE0027B846002400200C900B9040
:100D7000814682467AE00DA801230522194600909B
:100D80003B48006803F02BFE07461FBB0D98012867
:100D900020D1601C00EBD0714910A0EB4101CCB216
:100DA000012C0AD133A004F01FF9A04601213548D7
:100DB00001F084FE1020344908835CB933A004F0AC
:100DC00013F94FF0000800212E4801F077FE1020A3
:100DD0002D494883B8F1010F45D13048456829466F
:100DE00002A801F007F90BA90CA800F0D5F80B98A0
:100DF000C11700EB11714FEA2119BAF1000F03D0AE
:100E0000BAF1010F2DD112E04FF416601D493431B3
:100E100008600B9EF01706EB1070011120A004F083
:100E2000E3F8B9F1640F01DD4FF0010A1AE09DED1E
:100E30000B0AB8EEC00A02A801F0CCFFB0EE408A5F
:100E4000BCEEC80A10EE100A80B20E4934310860B8
:100E50000B9EF01706EB1070011111A004F0C4F8FE
:100E600000E000BF02E00A2004F02DFE83E700004E
:100E70003000002053544152542043504150210D22
:100E80000A000000000400400000024053544F508C
:100E90002043504150210D0A00000000E0000020D6
:100EA00025640D0A00000000F0B50A460021002369
:100EB000002400BF3DE0012505FA01F3156805EAAD
:100EC00003049C4234D105684F000326BE40B5435D
:100ED000056015794E00B540066835430560157903
:100EE000012D02D01579022D16D185684F000326F9
:100EF000BE40B543856055794E00B54086683543A0
:100F00008560456801268E40B54345604568967901
:100F10008E40B6B235434560C5684F000326BE40DB
:100F2000B543C560D5794E00B540C6683543C56048
:100F3000491C1029BFD3F0BDF0B5002300244D0794
:100F4000ED0E02FA05F3CE1000F1200555F82650FB
:100F50004E07F70E0F26BE40B543CF1000F1200616
:100F600046F82750CE1000F1200555F8265045EAE6
:100F70000304CE1000F1200545F82640F0BD0246DE
:100F8000002013690B400BB1012000E000207047E6
:100F90004183704701837047FEB506460F46002027
:100FA000029001900024009000250A21302001F0D9
:100FB000CDFF02AA0121302001F08AFF0DF10602C7
:100FC0000221092001F084FF0DF1070201213020E8
:100FD00001F07EFF9DF8040000069DF8051000EB6F
:100FE00001409DF8061000EB01209DF80710441801
:100FF000B4F5004F01DDA4F580342046E11704EB81
:1010000011610C1234600DF101020321062001F080
:101010005FFF9DF8000000069DF8011000EB014005
:101020009DF8021000EB01209DF803104518B5F55E
:10103000000F01DBA5F180752846E91705EB11616A
:101040000D123D60FEBD10B504460021204600F0A3
:1010500095F8142002F0C2FD0121204600F07DF831
:10106000142002F0BBFD0021204600F076F8142089
:1010700002F0B4FD0121204600F080F810BD1CB53F
:1010800004460121022001F05DF8A06800900220D2
:101090008DF8050001208DF8040000208DF8060071
:1010A00001208DF8070069462068FFF7FDFE01204A
:1010B0008DF80600E068009069466068FFF7F4FE6E
:1010C0000121204600F049F80121204600F056F8A1
:1010D0001CBD10B504460121204600F04FF8142035
:1010E00002F07CFD0121204600F037F8142002F0C8
:1010F00075FD0021204600F030F8142002F06EFD4E
:1011000010BD2DE9F04107460D460024002617E0EA
:101110006006040E0121384600F01FF8142002F08A
:101120005DFD384601F0D8FA08B1601CC4B2002158
:10113000384600F012F8142002F050FD701CC6B2C0
:10114000082EE5DB1DB93846FFF7C3FF02E038463D
:10115000FFF779FF2046BDE8F08170B504460D46E3
:10116000012D05D1228991B22068FFF713FF04E019
:10117000228991B22068FFF70BFF70BD70B504465D
:101180000D46012D05D1A28991B26068FFF702FFDB
:1011900004E0A28991B26068FFF7FAFE70BD70B5F5
:1011A00006460C4600213046FFF7D7FF002526E013
:1011B00004F0800020B101213046FFF7DFFF03E09B
:1011C00000213046FFF7DAFF142002F007FD01216D
:1011D0003046FFF7C2FF142002F000FD0021304628
:1011E000FFF7BBFF072D03D101213046FFF7C6FFF4
:1011F0006006040E142002F0F1FC681CC5B2082D34
:10120000D6DB70BD10B5044601212046FFF7A5FFCF
:1012100001212046FFF7B2FF142002F0DFFC00217D
:101220002046FFF7ABFF142002F0D8FC0021204637
:10123000FFF793FF142002F0D1FC10BD10B5044657
:1012400000212046FFF79AFF01212046FFF785FF86
:10125000142002F0C3FC01212046FFF78FFF142069
:1012600002F0BCFC10BD70B5054601212846FFF711
:1012700085FF142002F0B2FC01212846FFF76DFF24
:10128000142002F0ABFC284601F026FA012801D117
:10129000012400E0002400212846FFF75EFF14200F
:1012A00002F09CFC204670BD1CB50121132000F00B
:1012B00049FF1020009000208DF8040003208DF8D5
:1012C000050001208DF8070069461F48FFF7ECFD77
:1012D0000420009001208DF8040000208DF8060005
:1012E00003208DF8050000208DF807006946174897
:1012F000FFF7DAFD0121042000F024FF4FF47A50BB
:10130000009000208DF804008DF8060003208DF871
:10131000050001208DF8070069460D48FFF7C4FD60
:101320004FF48070009001208DF8040000208DF8AB
:10133000060003208DF8050002208DF8070069469D
:101340000348FFF7B1FD1CBD00100240000402403D
:10135000000802402DE9F04107460C4615461E469E
:101360002A2000F079FD384600F066FD284600F09E
:1013700063FD2B2000F070FD204600F05DFD30463F
:1013800000F05AFD2C2000F067FDBDE8F08170B53B
:1013900004460D4616462B46224629462046FFF7B0
:1013A000D9FF304600F048FD70BD2DE9F0470646F4
:1013B0000F4614461D46DDF820A0681E83B2601E4D
:1013C00082B239463046FFF7C5FFB8460EE0B14657
:1013D00006E0504600F030FD09F101001FFA80F9E7
:1013E000A145F6DB08F101001FFA80F8A845EEDB05
:1013F000BDE8F08710B54FF480717248FFF7CAFD61
:101400000A2002F00BFB4FF480716E48FFF7C0FD1D
:101410000A2002F003FB4FF480716A48FFF7BAFD1F
:10142000782002F0FBFA4FF480416648FFF7B2FDE6
:10143000112000F011FD782002F0F0FA362000F0C3
:101440000BFD702000F001FD3A2000F005FD0520A5
:1014500000F0FBFCB22000F0FFFC052000F0F5FCE2
:10146000052000F0F2FC002000F0EFFC332000F03B
:10147000ECFC332000F0E9FCB72000F0EDFC352057
:1014800000F0E3FCBB2000F0E7FC212000F0DDFCD5
:10149000C02000F0E1FC2C2000F0D7FCC22000F0BE
:1014A000DBFC012000F0D1FCC32000F0D5FC0B20B8
:1014B00000F0CBFCC42000F0CFFC202000F0C5FCE5
:1014C000C62000F0C9FC0F2000F0BFFCD02000F0C7
:1014D000C3FCA72000F0B9FCA12000F0B6FCD0208E
:1014E00000F0BAFCA42000F0B0FCA12000F0ADFC9C
:1014F000D62000F0B1FCA12000F0A7FCE02000F015
:10150000ABFCD02000F0A1FC042000F09EFC0820E1
:1015100000F09BFC0A2000F098FC092000F095FCEC
:10152000052000F092FC2D2000F08FFC432000F0FD
:101530008CFC492000F089FC092000F086FC162074
:1015400000F083FC152000F080FC262000F07DFCDC
:101550002B2000F07AFCE12000F07EFCD02000F08F
:1015600074FC032000F071FC092000F06EFC0A20DE
:1015700000F06BFC0A2000F068FC062000F065FC1F
:101580002E2000F062FC442000F05FFC402000F0C0
:101590005CFC3A2000F059FC152000F056FC1520A8
:1015A00000F053FC262000F050FC2A2000F04DFCF7
:1015B000212000F051FC292000F04EFC0A2002F00E
:1015C0002DFA10BD001002402DE9FF5F80468A46CB
:1015D00017469B460F9D00200290CDF800802846BC
:1015E00005EBD071C1F347042046E21704EB5272B9
:1015F000D2102146E31704EB5373DB10A4EBC303B3
:101600000BB1012300E000231A446A4392B2019215
:10161000A7F12000C7B20AEB0500401E83B208EB19
:101620000400401E82B251464046FFF793FE00265A
:1016300069E00C2D07D107EB4700354901EB80002D
:10164000805D03901BE0102D05D1324800EB0710A0
:10165000805D039013E0182D07D107EB47002E495A
:1016600001EB0010805D039009E0202D05D12B488F
:1016700000EB8710805D039001E0BDE8FF9F4FF015
:1016800000093AE01098C8B9012000FA09F003995E
:10169000084018B1584600F0CFFB02E00E9800F069
:1016A000CBFB0298401CC0B20290029890FBF4F170
:1016B00004FB1100E8B90020029021E0012000FAAB
:1016C00009F00399084020B15A4651464046FFF7B9
:1016D0005EFE08F101001FFA80F80098A8EB0000F8
:1016E000A04206D1DDF800800AF101001FFA80FA5D
:1016F00006E009F1010000F0FF09B9F1080FC1DBB4
:1017000000BF701C86B20198864292DB00BFB4E72E
:10171000687800080802002074780008F8070020A4
:101720002DE9FE4F8046894617469A46DDE90D466B
:101730000C9D36E00C2C09D153463A4649464046AA
:10174000CDE90146009500F031F825E0102C09D1D3
:1017500053463A4649464046CDE90146009500F0D9
:10176000C9F819E0182C09D153463A464946404673
:10177000CDE90146009500F059F90DE0202C09D182
:1017800053463A4649464046CDE90146009500F0A9
:10179000F1F901E0BDE8FE8FBF1C08EB04001FFA61
:1017A00080F838780028C5D100BFF3E72DE9FF5F46
:1017B0000646894692469B460F9C00200390009661
:1017C0002046E21704EB5272D2102146E31704EBD5
:1017D0005373DB10A4EBC3030BB1012300E0002320
:1017E0001A44624392B2019201200290002579E0EE
:1017F00005EB850000EBC5003D4911F810009AF893
:10180000001088426BD105EB850000EBC50038491C
:1018100001EB400040789AF8011088425FD109EB53
:101820000400401E83B23019401E82B24946304641
:10183000FFF790FD00274FE04FF0000846E01098BA
:1018400008BB05EB850000EBC500294901EB400012
:10185000801CC05D012101FA08F1084018B158460A
:1018600000F0EAFA02E00E9800F0E6FA0398401C55
:10187000C0B20390039890FBF4F104FB110008BB85
:101880000020039025E005EB850000EBC50018491A
:1018900001EB4000801CC05D012101FA08F1084005
:1018A00020B15A4649463046FFF771FD701C86B29A
:1018B0000098301AA04205D1009E09F101001FFADC
:1018C00080F906E008F1010000F0FF08B8F1080F08
:1018D000B5DB00BF781CC7B201988742ACDB00BF04
:1018E000681C85B20298854282DBBDE8FF9F00003C
:1018F000A47800082DE9FF5F0646894692469B467C
:101900000F9C0020039000962046E21704EB5272D1
:10191000D2102146E31704EB5373DB10A4EBC3038F
:101920000BB1012300E000231A44624392B20192FA
:1019300059200290002571E005EB05103A4911F895
:1019400010009AF80010884265D105EB0510364961
:1019500001EB400040789AF8011088425BD109EB16
:101960000400401E83B23019401E82B24946304600
:10197000FFF7F0FC00274BE04FF0000842E0109822
:10198000F8B905EB0510284901EB4000801CC05D4B
:10199000012101FA08F1084018B1584600F04CFA4C
:1019A00002E00E9800F048FA0398401CC0B2039081
:1019B000039890FBF4F104FB1100F8B900200390A8
:1019C00023E005EB0510184901EB4000801CC05DC9
:1019D000012101FA08F1084020B15A464946304633
:1019E000FFF7D5FC701C86B20098301AA04205D1D2
:1019F000009E09F101001FFA80F906E008F10100DC
:101A000000F0FF08B8F1080FB9DB00BF781CC7B2BF
:101A100001988742B0DB00BF681C85B202988542FE
:101A20008ADBBDE8FF9F0000BE7800082DE9FF5F5C
:101A30000646894692469B460F9C002003900096DE
:101A40002046E21704EB5272D2102146E31704EB52
:101A50005373DB10A4EBC3030BB1012300E000239D
:101A60001A44624392B2019201200290002579E06B
:101A700005EB850000EB45103D4911F810009AF880
:101A8000001088426BD105EB850000EB451038490A
:101A900001EB400040789AF8011088425FD109EBD1
:101AA0000400401E83B23019401E82B249463046BF
:101AB000FFF750FC00274FE04FF0000846E0109879
:101AC00008BB05EB850000EB4510294901EB400000
:101AD000801CC05D012101FA08F1084018B1584688
:101AE00000F0AAF902E00E9800F0A6F90398401C55
:101AF000C0B20390039890FBF4F104FB110008BB03
:101B00000020039025E005EB850000EB4510184907
:101B100001EB4000801CC05D012101FA08F1084082
:101B200020B15A4649463046FFF731FC701C86B258
:101B30000098301AA04205D1009E09F101001FFA59
:101B400080F906E008F1010000F0FF08B8F1080F85
:101B5000B5DB00BF781CC7B201988742ACDB00BF81
:101B6000681C85B20298854282DBBDE8FF9F0000B9
:101B7000908400082DE9FF5F0646894692469B4601
:101B80000F9C0020039000962046E21704EB52724F
:101B9000D2102146E31704EB5373DB10A4EBC3030D
:101BA0000BB1012300E000231A44624392B2019278
:101BB00004200290002571E005EB85103A4911F8E8
:101BC00010009AF80010884265D105EB851036495F
:101BD00001EB400040789AF8011088425BD109EB94
:101BE0000400401E83B23019401E82B2494630467E
:101BF000FFF7B0FB00274BE04FF0000842E01098E1
:101C0000F8B905EB8510284901EB4000801CC05D48
:101C1000012101FA08F1084018B1584600F00CF90A
:101C200002E00E9800F008F90398401CC0B203903F
:101C3000039890FBF4F104FB1100F8B90020039025
:101C400023E005EB8510184901EB4000801CC05DC6
:101C5000012101FA08F1084020B15A4649463046B0
:101C6000FFF795FB701C86B20098301AA04205D190
:101C7000009E09F101001FFA80F906E008F1010059
:101C800000F0FF08B8F1080FB9DB00BF781CC7B23D
:101C900001988742B0DB00BF681C85B2029885427C
:101CA0008ADBBDE8FF9F0000DA8400082DE9FF4FC2
:101CB0002DED020B2DED028B83B00746B0EE408A6E
:101CC0001446DDE91486304606EBD071C1F3470AAD
:101CD0009FED220A28EE000ABCEEC00A10EE100AA0
:101CE0001FFA80FB002530E0601B401EC1B20A20B5
:101CF00002F0D8FDBBFBF0F00A21B0FBF1F201FBD2
:101D00001209A01EA84210D10020A11E01FB0A71D9
:101D1000CDE90086029088B22E220A9B0899FFF72F
:101D200053FC681CC5B2601CC4B2002009F130012C
:101D3000CAB205FB0A71CDE90086029088B20A9BFF
:101D40000899FFF741FC681CC5B2A542CCDB03B083
:101D5000BDEC028B06B0BDE8F08F00000000C84269
:101D60002DE9FF4F85B0074691461D46DDE913A6D4
:101D700000200490304606EBD071C1F3470B0024DD
:101D800034E0281B401EC1B20A2002F08BFDB9FBD3
:101D9000F0F00A21B0FBF1F201FB12080498A0B99F
:101DA000681EA04211DDB8F1000F0CD1002004FB29
:101DB0000B71CDE900A6029088B22022129B0699F1
:101DC000FFF702FC10E001200490002008F1300130
:101DD000CAB204FB0B71CDE900A6029088B2129B37
:101DE0000699FFF7F1FB00BF601CC4B2AC42C8DB30
:101DF00009B0BDE8F08F2DE9FE4F06460F461446A8
:101E00009846DDE90D5ADDF8309010E0CDE9015A31
:101E1000CDF800902278434639463046FFF7D4FB90
:101E2000284605EBD07106EB61018EB2641C207868
:101E30000028EBD1BDE8FE8F10B50446201200F05B
:101E40001DF8E0B200F01AF810BD10B504462046A7
:101E500000F014F810BD000010B504464FF4806186
:101E60000548FFF795F8204600F008F84FF4806128
:101E70000148FFF78FF810BD0010024010B504466E
:101E80004FF480510D48FFF783F800BF02210C4842
:101E900000F0ACFC0028F9D02146094800F0AFFC66
:101EA00000BF8021064800F0A1FC0128F9D04FF4C2
:101EB00080510248FFF76EF810BD0000001002408C
:101EC000003001401CB50121202000F03BF94FF407
:101ED000C060009001208DF8040000208DF80600FD
:101EE0008DF807008DF8050069460548FEF7DCFF10
:101EF0000120044908600449C1F8A8021CBD000083
:101F000000140240A48242420080424208B54FF4CD
:101F1000A06000F04BF825208DF8000001208DF81E
:101F200001008DF802008DF80300684600F002F809
:101F300008BD000070B5002100230F22C4781CB337
:101F4000174C246804F4E064C4F5E064C4F307218A
:101F5000C1F10404E3B20A4144789C40E1B28478C0
:101F6000144021430C07210E0E4C0578615504786E
:101F700004F01F050124AC4005786D11AD0005F19A
:101F8000E025C5F8004109E0047804F01F050124AC
:101F9000AC40054D0678761145F8264070BD00002E
:101FA0000CED00E000E400E080E100E002490143C4
:101FB000024A1160704700000000FA050CED00E0D5
:101FC00080ED000AC0ED010A80ED021AC0ED031A8F
:101FD0009FED072A80ED042A9FED052A80ED052A52
:101FE0009FED032A80ED062A4FF4E15101847047EA
:101FF0000000000000B503460A46B2F5167F0FDA6E
:10200000100100EE100AB8EEC00AF0EE401A9FED83
:102010002F1ADFED2F0A9FED2F0A1846FFF7D0FF8A
:10202000B2F5167F12DBB2F57A7F0FDA100100EEFF
:10203000100AB8EEC00AF0EE401A9FED271ADFED45
:10204000270A9FED240A1846FFF7BAFFB2F57A7FF8
:1020500012DBB2F5AF6F0FDA100100EE100AB8EE26
:10206000C00AF0EE401A9FED1E1ADFED1E0A9FED2A
:10207000190A1846FFF7A4FFB2F5AF6F12DBB2F5ED
:10208000E16F0FDA100100EE100AB8EEC00AF0EEB0
:10209000401A9FED151ADFED150A9FED0E0A18463E
:1020A000FFF78EFFB2F5E16F0FDB100100EE100AB3
:1020B000B8EEC00AF0EE401A9FED0C1ADFED0B0AE5
:1020C0009FED040A1846FFF77BFF00BDEC51383E38
:1020D000EC51383DCDCC4C3E0AD7A33D0AD7233D29
:1020E000CDCC4C3DCDCCCC3C8FC2F53C0AD7A33CEB
:1020F000014908627047000000000E420349096868
:1021000041EA8001014A1160704700000070004000
:102110000748006840F0020005490860054800686B
:1021200040F004000349086000BF00BF30BF7047A3
:102130000070004010ED00E00149086070470000A9
:10214000A0000E4229B1064A12680243044B1A60ED
:1021500004E0034A12688243014B1A607047000092
:102160003038024029B1064A12680243044B1A6013
:1021700004E0034A12688243014B1A607047000072
:102180001038024029B1064A12680243044B1A6013
:1021900004E0034A12688243014B1A607047000052
:1021A0004038024029B1064A12680243044B1A60C3
:1021B00004E0034A12688243014B1A607047000032
:1021C00044380240F0B500210022002402250026F8
:1021D0000223324F3F6807F00C0121B1042905D0DA
:1021E000082937D105E02E4F076036E02D4F0760F4
:1021F00033E02A4F3F1F3F68C7F38056274F3F1FEA
:102200003F6807F03F036EB1264FB7FBF3F7DFF8E7
:102210008CC0ACF1040CDCF800C0CCF3881C07FBCC
:102220000CF40CE01E4FB7FBF3F7DFF870C0ACF115
:10223000040CDCF800C0CCF3881C07FB0CF4174F2F
:102240003F1F3F68C7F301477F1C7D00B4FBF5F7D4
:10225000076002E0124F076000BF00BF0F4F3F68EA
:1022600007F0F0010909104F7A5C0768D740476012
:102270000A4F3F6807F4E051890A0B4F7A5C4768C0
:10228000D7408760054F3F6807F46041490B064F10
:102290007A5C4768D740C760F0BD0000083802404C
:1022A0000024F40000127A001400002010B501464A
:1022B0000022002300204A11012A02D10A4C23687F
:1022C00008E0022A03D1084C7034236802E0064C6F
:1022D0007434236801F01F02012494401C400CB1A7
:1022E000012000E0002010BD003802400021094A12
:1022F00011701170012802D0042808D103E00121D7
:10230000044A117004E00521024A117000E000BF88
:1023100000BF7047703802400149086070470000F4
:102320003C0E4742002100F44072B2F5407F08D1D4
:10233000094A116821F4F811084A02401143064A7B
:102340001160054A68321268C0F30B031A43024B4E
:1023500068331A607047000008380240FFFCFF0F26
:10236000014600BF080900EB8000420001F00F00A9
:102370001044C0B270470146002204E0501CC2B2B3
:10238000A1F10A00C1B20A29F8DA100741EA106087
:1023900070470000002101098AB242F08002044B1C
:1023A0001B6803F0800363EA0202014B1A60704766
:1023B0000C28004008B50022009200200021104A9D
:1023C000126802F04002CAB9421E0D4B1A6000BFEB
:1023D0000B4A126802F04001009A521C0092009AC7
:1023E000B2F5803F01D00029F2D0054A126802F010
:1023F00040020AB1012002E0002000E0012008BDF7
:102400000C2800400348006820F080000149086063
:10241000704700000C280040CA22174B1A60532254
:102420001A6091B1144A1C3A126820F004031A434E
:10243000114B1C3B1A60104A1C32126800F0040356
:102440001A430D4B1C331A6011E00B4A1C3A1268F8
:1024500020F004039A43084B1C3B1A60064A1C32C6
:10246000126800F004039A43034B1C331A60FF22E6
:10247000014B1A60704700002428004030B5044624
:102480000025CA201549086053200860FFF792FF15
:1024900000B91DE011481C38006820F040000F49C9
:1024A0001C39086008460068216808430B491C393C
:1024B00008600A491439A068086008460068A188C5
:1024C00040EA0140054914390860FFF79BFF0125E8
:1024D000FF2002490860284630BD00002428004043
:1024E0002DE9F04105460C46002600274DB96078DD
:1024F00000F01000102804D1607820F010000A309D
:10250000607005B908E06078FFF72AFF0646A078FA
:10251000FFF726FF064600BF55B1E078000461785A
:1025200040EA0120A1780843217840EA413611E0D1
:10253000E078FFF720FF4FEA00486078FFF71BFFC5
:1025400048EA0028A078FFF716FF48EA000820783C
:1025500048EA4036CA201249086053200860FFF755
:1025600029FF08B9002714E00E4830400C492039F3
:102570000860FFF747FF0A481C38006800F0200099
:1025800030B900F079F808B9002702E0012700E02F
:102590000127FF20024908603846BDE8F0810000AD
:1025A000242800403FFFFF002DE9F04105460C467E
:1025B000002600274DB92E48006800F0400000B109
:1025C00002E00020E07000BF0DE02948006800F044
:1025D000400020B12078FFF7C3FE064602E000204D
:1025E000E07000BF00BF55B120780004617840EA78
:1025F0000120A1780843E17840EA014611E0207803
:10260000FFF7B9FE4FEA00486078FFF7B4FE48EAEA
:102610000028A078FFF7AFFE48EA0008E07848EA13
:102620000046CA2012491C31086053200860FFF799
:10263000C1FE08B9002713E00E4830400C490839A4
:102640000860FFF7DFFE0A48006800F0200030B99C
:1026500000F012F808B9002702E0012700E0012786
:10266000FF2003491C3108603846BDE8F0810000B6
:10267000082800407F7F7F0008B5002200920020DC
:102680000021CA22134B1A6053221A60114A183AC9
:10269000126822F0A0020F4B183B1A6000BF0D4ACF
:1026A000183A126802F02001009A521C0092009A17
:1026B000B2F5003F01D00029F1D0064A183A12685D
:1026C00002F020020AB1012000E00020FF22014BAD
:1026D0001A6008BD2428004070B50446A28991B252
:1026E0006068FEF74CFC0546284670BD10B50446F0
:1026F00001480169884710BD780100202DE9F041AB
:1027000080460D4616460024002720484169884728
:102710001E484A21826A90471C48C169884729128D
:102720001A48826A90471948C1698847E9B2174830
:10273000826A90471548C16988471448816988476B
:102740000A2003F0C0F91148416988470F484B211E
:10275000826A90470D48C169884700BF0CE0082C89
:1027600001DA012700E0002708483946C26A90478D
:1027700040B23055601CC4B2092CF0DB03488169BB
:1027800088470A2003F09FF9BDE8F0817801002016
:1027900070B505460C460E48416988470C484A21E9
:1027A000826A90470A48C169884721120848826AAC
:1027B00090470748C1698847E1B20548826A904757
:1027C0000348816988470A2003F07DF970BD000045
:1027D0007801002021B1028842F04002028004E02A
:1027E00002884FF6BF731A400280704702460020ED
:1027F00013890B400BB1012000E00020704781815C
:10280000704710B50022028802F441520B884C88B0
:1028100023438C882343CC8823430C8923434C894E
:1028200023438C892343CC8923431A430280838B1F
:102830004FF2FF74234083830B8A038210BD000094
:1028400030B500228B071C0F0F2303FA04F20B4B49
:102850008C1053F824309343084C8D1044F82530E5
:1028600023468C1053F824308C07240F00FA04F40C
:102870002343024C8D1044F8253030BD0838014008
:102880000CB50020019000903448006840F480307E
:102890003249086000BF3148006800F40030009001
:1028A0000198401C0190009818B90198B0F5A04F0C
:1028B000F1D12A48006800F4003010B101200090E6
:1028C00001E0002000900098012846D123484030C4
:1028D000006840F08050214940310860204800687D
:1028E00040F440401E4908601C48083000681B49FD
:1028F000083108600846006840F400400860084657
:10290000006840F4A05008601648091F0860081FBE
:10291000006840F08070091F086000BF0F48006821
:1029200000F000700028F9D040F205700E490860F0
:102930000A480830006820F00300084908310860A0
:102940000846006840F00200086000BF03480830F5
:10295000006800F00C000828F8D10CBD00380240D7
:102960000070004008544007003C024010B50121AF
:1029700040F2FF40FFF7F6FB01210807FFF702FCDA
:102980000120FFF7B5FB00214FF47040FFF744FD35
:102990004FF47040FFF7FEFC0120FFF7AFFB012072
:1029A000FFF7CAFBFFF7B4FB10BD10B502F09AFAAF
:1029B00003F0FEF902F0A6FA10BD000010B51548AC
:1029C000006840F47000134908601348006840F044
:1029D00001001149086000200F49083108600E48C5
:1029E00000680E4908400C4908600D48091D086040
:1029F000081F006820F48020091F08600020064995
:102A00000C310860FFF73CFF4FF00060014980394E
:102A1000086010BD88ED00E000380240FFFFF6FEC0
:102A20001030002430B58BB005460C46012104203F
:102A3000FFF788FB01210220FFF7A4FB02220621F9
:102A40001C48FEF779FA4020099002208DF82800F2
:102A500003208DF8290000208DF82A008DF82B0026
:102A600009A91448FEF720FA0795ADF81840002090
:102A7000ADF82000ADF81A0006A90F4800F072F872
:102A80006020ADF804000120ADF806004FF40760A7
:102A900003900020ADF8100001A9074800F01AF8D3
:102AA0000821054800F054F80121034800F006F819
:102AB0000BB030BD000802400004004021B1028884
:102AC00042F00102028004E002884FF6FE731A40D1
:102AD0000280704770B5002400220023058C4FF659
:102AE000FE7635400584028C8388048B4FF68F7503
:102AF0002C40B51E2C400D882C43751E2A408D8914
:102B00002A434D882A43104DA84202D00F4DA842B7
:102B100013D14FF6F7752A40CD892A434FF6FB753E
:102B20002A408D882A434FF6FF652B404FF6FF550C
:102B30002B400D8A2B434D8A2B43838004838D6861
:102B40004563028470BD00000000014000040140A4
:102B50000A460021018B4FF6F77319401143018398
:102B60007047000000220288184B98420ED0184B84
:102B700098420BD0B0F1804F08D0164B984205D048
:102B8000154B984202D0154B984204D14FF68F73E3
:102B90001A404B881A43124B984207D0114B984267
:102BA00004D04FF6FF431A400B891A4302804B684A
:102BB000C3620B880385054B984202D0044B9842B0
:102BC00001D18B7A03860123838270470000014084
:102BD000000401400004004000080040000C0040D8
:102BE000001000400014004021B1828942F40052DC
:102BF000828104E082894DF6FF731A40828170471A
:102C000002460020B1F5007F00D100BF13880B40C1
:102C10000BB1012000E000207047F0B5034600240E
:102C200000260025002040F66A17B94200D100BFF7
:102C30001846C1F3421401F01F06012707FA06F5F2
:102C4000012C01D10C3004E0022C01D1103000E045
:102C500014301AB107682F43076002E00768AF43DA
:102C60000760F0BD2DE9FF4705460E460024A1464A
:102C700000BFA046B08900B100BF2C8A24F44054A4
:102C8000F08804432C82AC8941F20C608443B08804
:102C900031890843718908430443AC81AC8A24F428
:102CA0004074B0890443AC826846FFF78BFA204831
:102CB000854202D01F48854202D1DDF80C9001E028
:102CC000DDF80890A88900F4004040B109EBC90084
:102CD00000EB091031684900B0FBF1F707E009EBA0
:102CE000C90000EB091031688900B0FBF1F76420DE
:102CF000B7FBF0F004012009642101FB1078A889DA
:102D000000F4004040B1322000EBC800B0FBF1F00D
:102D100000F00700044308E0322000EB08106421B3
:102D2000B0FBF1F000F00F0004432C81BDE8FF87F9
:102D30000010014000140140C1F308028280704776
:102D400000B585B001210846FFF7FCF90121880391
:102D5000FFF728FA0120039000208DF810000120D1
:102D60008DF8120003208DF8110002208DF8130059
:102D700003A91748FEF798F8FDF710FE08B9FFF70A
:102D8000F5FD00210846FFF75BFD012000900020C3
:102D90008DF8040008208DF8050001208DF806004C
:102DA0006846FDF7CBFE4FF4A060FFF7FFF8062062
:102DB0008DF8080002208DF809008DF80A00012026
:102DC0008DF80B0002A8FFF7B5F805B000BD0000B4
:102DD00000000240B0EE401AD0ED031A71EEC11AA5
:102DE000F0EE610AD0ED071A71EEA01AC0ED071AD5
:102DF000D0ED011AF5EEC01AF1EE10FA14D0D0EDB4
:102E0000011A9FED2D2AC2EE212AD0ED071AF4EE09
:102E1000E12AF1EE10FA07D2D0ED011A9FED262A31
:102E2000C2EE212AC0ED072AD0ED011AF5EEC01A34
:102E3000F1EE10FA14D090ED012ADFED202AC2EE57
:102E4000821A90ED072AF4EEC21AF1EE10FA07DDAD
:102E5000D0ED011A9FED192AC2EE212AC0ED072AF2
:102E6000D0ED011A90ED072A61EE821A90ED002A4A
:102E700042EE201A90ED022AD0ED052A70EEE22AE9
:102E8000B0EE610A02EE220AC0ED050AB5EEC00AF4
:102E9000F1EE10FA03D2DFED091AB0EE610ADFEDB0
:102EA000061AB4EEE10AF1EE10FA03DDDFED021AC4
:102EB000B0EE610A7047000000401C4600000000B0
:102EC00010B5002401480169884710BDA801002001
:102ED0002DE9F04105460E4614461B4841698847D6
:102EE0001948DA21826A90471748C169884716480D
:102EF0002946826A90471448C1698847082002F031
:102F0000E2FD1148416988470F48DB21826A9047FA
:102F10000D48C1698847002707E00B480121C26AB4
:102F200090472070641C781CC7B2701EB842F4DC55
:102F300005480021C26A904720700348816988478C
:102F40000020BDE8F0810000A801002070B5044613
:102F50000D460E48416988470C48DA21826A90473D
:102F60000A48C169884709482146826A904707484C
:102F7000C169884705482946826A904703488169A4
:102F80008847082002F09FFD70BD0000A8010020C6
:102F90007CB5044600201D46164600290BD0491E6C
:102FA000CDE90041044B6A462946304600F008F955
:102FB000009A002111707CBDE5390008014609B96D
:102FC00000207047C8B220B1C8B20E4A105C401C45
:102FD000F7E701F47F4028B10A48C1F30722805C7B
:102FE0000930EEE701F47F0028B10648C1F307423B
:102FF000805C1130E5E7034800EB11600078193080
:10300000DFE70000E286000802E008C8121F08C1DE
:10301000002AFAD170477047002001E001C1121F59
:10302000002AFBD1704700002DE9FF5F82B000212C
:10303000DDE90430020DDDF840B0034318D044F65A
:103040001050A2F2FF3242431514119801281FD0EC
:10305000A5EB0B00401C5FEA000A4FF000064E4F44
:10306000DFF83891B046504615D5CAF1000413E098
:10307000119801244AA3012801D16FEA0B0102989B
:10308000119AC0E90031C0E9024206B0BDE8F09FE4
:10309000CBF10000DFE704460021404A491842EB2B
:1030A0000450CDE9001012E0E00707D032463B465D
:1030B00040464946FDF73CFB8046894632463B4642
:1030C00010461946FDF734FB06460F466410002CE7
:1030D000EAD1DDE90401DDE90023BAF1000F06DAE7
:1030E000FDF726FB42464B46FDF722FB05E0FDF7C8
:1030F00001F942464B46FDF7FDF804460E46002214
:10310000284BFDF79FFB03D84FF0FF30014607E047
:103110000022254B20463146FDF763FAFDF77AFB86
:10312000102409E0002C0ADB0A220023FDF794F9A1
:10313000039B30321A55641E50EA0102F2D1641C1E
:10314000039AC4F111031444119A012A03D00122F5
:1031500008430DD10AE0084304D000204FF0110BC2
:10316000119072E7A3EB0B056D1E0DE05B4504DDCE
:103170004FF0000205F1010504E003DA4FF0000210
:10318000A5F10105002AECD002981199C0E902319D
:10319000C0E9004579E70000000014400000F03F5E
:1031A000300000000000F0430000E03F03490868E1
:1031B000884201D0012070470020FCE7080F002062
:1031C0002DE9FF4F95B09B468946064600250FE244
:1031D000252877D100242746F84A0121059400E0EC
:1031E000044316F8013F203B01FA03F01042F7D1E7
:1031F00030782A2811D06FF02F033078A0F13002F8
:10320000092A16D8059A44F0020402EB820203EB65
:1032100042021044761C0590EFE759F8042B059202
:10322000002A03DA504244F40054059044F00204AA
:10323000761C30782E2816D116F8010F44F00404BD
:103240002A280DD06FF02F023078A0F13003092B1F
:1032500009D807EB870302EB4303C718761CF3E793
:1032600059F8047B761C30786C280FD006DC4C288B
:1032700017D068280DD06A2814D104E0742810D023
:103280007A280FD10DE044F400140AE044F48014CD
:1032900001E044F440147278824202D104F58014B3
:1032A000761C761C307866280BD013DC582877D033
:1032B00009DC002875D04528F6D04628F4D04728E8
:1032C0001AD19DE118E0632835D0642879D06528AB
:1032D00012D195E1702873D008DC6728F1D06928F5
:1032E0006FD06E280DD06F2806D1B5E073282CD092
:1032F000752875D0782874D05A46179990476D1C58
:1033000075E1C4F30250022809D003280DD0D9F882
:10331000001004280DD00D6009F1040967E1D9F807
:103320000010EA17C1E90052F6E7D9F800100D8045
:10333000F2E70D70F0E719F8041B8DF8001000207B
:103340008DF80100EA46012003E059F804AB4FF084
:10335000FF3061074FF0000102D40DE008F10101D8
:103360008846B9420FDA8045F8DB1AF808100029C0
:10337000F4D108E008F1010188468142FADB1AF82D
:1033800008100029F6D105985B46A0EB08072146F6
:103390003846179A00F094FA284400EB080507E035
:1033A0004DE029E10DE01AF8010B5A4617999047B4
:1033B000B8F10108F7D25B4621463846179A13E167
:1033C00042E00A220092C4F302524FF0000A022A9D
:1033D00008D059F804CB032A4FEAEC710AD00DE06B
:1033E00029E02AE009F1070121F00702F2E802C111
:1033F000914609E00FFA8CFC4FEAEC71042A03D1E4
:103400004FFA8CFC4FEAEC71002907DA0A460021DA
:10341000DCF1000C61EB02012D2202E0220504D553
:103420002B228DF80420012203E0E20701D02022A4
:10343000F7E7904659E00A2102E010220DE0102142
:103440004FF0000A00910BE010224FF0000A44F008
:1034500004040827009203E008224FF0000A0092BB
:10346000C4F30252022A05D059F804CB0021032AE2
:1034700008D009E009F1070121F00702F2E802C1D2
:10348000914605E01FFA8CFC042A01D10CF0FF0CD8
:103490004FF00008220728D5702806D0009B83F043
:1034A000100353EA0A0305D00EE040228DF80420F1
:1034B000012208E05CEA010206D030228DF80420E7
:1034C0008DF8050002229046009B83F0080353EA22
:1034D0000A030AD15CEA010201D1620705D5302254
:1034E0008DF804204FF001087F1E582804D034A026
:1034F00003900EA802900DE036A0F9E7534660460F
:10350000009AFCF7A9FF84460398825C0298401E4B
:10351000029002705CEA0100F0D1029806A9081A34
:1035200000F1200A600702D524F4803400E001276E
:10353000574502DDA7EB0A0000E0002000EB0A017E
:10354000009005984144401A0590E00306D45B467C
:103550002146179A059800F0B3F90544002706E0C4
:1035600001A85A46C05D179990476D1C7F1C4745BE
:10357000F6DBE0030CD55B462146179A059800F070
:103580009FF9054404E030205A46179990476D1C76
:103590000099481E00900029F5DC08E00298029985
:1035A0005A460078491C0291179990476D1CBAF150
:1035B0000001AAF1010AF1DC65E10000092801001F
:1035C0003031323334353637383961626364656699
:1035D000000000003031323334353637383941425B
:1035E000434445460000000000F058F90544761CAD
:1035F000307800287FF4ECAD19B02846BDE8F08F94
:10360000620700D4062709F1070222F0070CFCE844
:103610000223E14603F000485FEA080C02D00FF2F3
:10362000702C0DE05FEA045C02D50FF2682C07E015
:103630005FEAC47C02D00FF2602C01E0AFF2700CA4
:103640004FF0FF3823F00043CDF850C065280CD070
:1036500006DC452809D046281DD047283DD13DE04D
:10366000662818D067287ED138E00021112F01DBB1
:10367000112000E0781CCDE9000106A90EA8FFF793
:10368000D3FCDDE90F010E9A03910021009207F1AE
:10369000010A04914DE04FF000400097CDE9011080
:1036A00006A90EA8FFF7C0FCDDE90F0203920E9BEE
:1036B00011990022DDF80CA00093049211B9791C35
:1036C00000EB010AB7EB0A0004D4C0F1FF3007F1A8
:1036D000010A0490AAEB0700019044E0012F00DAF0
:1036E00001270021112F01DD112000E03846CDE92E
:1036F000000106A90EA8FFF797FCDDE90F010E9A5D
:103700000391002104910092BA4621070CD4039939
:10371000514500DA8A46BAF1010F05DD009AAAF197
:103720000101515C302908D0B84202DA10F1040FCF
:1037300006DA0121CDE9011015E0AAF10101E9E75E
:10374000002805DC049901440491AAEB000102E081
:10375000411C514500DD8A460499401A401C0190E5
:103760004FF000400290200704D40198504501DB3F
:10377000CDF8048000208DF84F0002980DF14F071E
:10378000B0F1004F25D02B200E9002984FF0020888
:1037900000280CDA404202902D200E9007E00A210A
:1037A0000298FCF743FE3031029007F8011DB8F192
:1037B0000001A8F10108F2DC02980028EFD1791E7F
:1037C0000E980870307800F0200040F0450007F8AF
:1037D000020D12A8C01B00F107081498007800B170
:1037E000012000EB0A01019801EBE07105984144CA
:1037F000401A401E0590E00306D45B462146179A06
:10380000059800F05DF805441498007818B15A4600
:10381000179990476D1CE00324D55B462146179A03
:10382000059800F04DF805441CE00498002807DBDB
:10383000DDE90301884203DD0098405C179901E04F
:10384000179930205A469047049805F10105401C0D
:1038500004900198401E019004D12E205A461799D9
:1038600090476D1CBAF10001AAF1010ADDDC05E008
:1038700017F8010B5A46179990476D1CB8F10001D3
:10388000A8F10108F4DC5B462146179A0598ABE6DF
:103890002D0000002B000000200000002DE9F04169
:1038A000044600251E461746880404D405E0394620
:1038B0002020B0476D1C641EF9D52846BDE8F08174
:1038C0002DE9F041044600251E469046C80301D567
:1038D000302700E02027880404D505E0414638461B
:1038E000B0476D1C641EF9D52846BDE8F081000084
:1038F0002DE9FC5F04468B4615461E46DDE90C9A11
:10390000DDE90E7804F114004060006000BF1C3453
:103910006560A660C4F80C90C4F810A02321D4E917
:10392000030201F0B5FCD4E9033C63441A1F0F4BBA
:10393000D4E9010101F0AEFA2060A7766776002095
:10394000E061C4F82880C4F82C8060612076E065CE
:1039500020661C3C00902346054A2146019004F154
:103960004C0002F0A7FA0020BDE8FC9FD55A0008E1
:10397000215D00082DE9F04704460E46174698469B
:10398000DDF8209084F80990607A20F001006072E0
:10399000E66127620020A062C4F82480002506E0CA
:1039A00004F1140101EBC50001F03CFB6D1C012D7D
:1039B000F6DBBDE8F08710B50246002001460EE0B8
:1039C00002F1140303EBC100D0E900436360D0E9C6
:1039D000003423604060006000BF481C014601299C
:1039E000EEDB10BD4A68002A06D00A68531C0B6043
:1039F00010704868401E48607047002107E042F69A
:103A0000E06100BF0A1EA1F1010399B2FAD1021EC2
:103A1000A0F1010398B2F2D17047000070B50346DF
:103A20000022114D2D68114EB5FBF6F505FB03F490
:103A30004FF0E025A96913E04FF0E025A86988421E
:103A40000ED0884202D20D1A2A4405E04FF0E0253C
:103A50006D692D1A0D442A440146A24200D300E0AC
:103A6000EAE700BF70BD00000000002040420F00E8
:103A700010B5002005E0184901440969174A1150A2
:103A8000001D2028F7D3002005E013490144096CEC
:103A9000134A1150001D0628F7D310480078FF285C
:103AA0000DD101200F49087020220F490B48FCF767
:103AB0000FFC0B480D490A6802608988818020222A
:103AC00006490948FCF704FC084805490A680260F1
:103AD0008988818010BD000000000E08E0000020F1
:103AE00048010020DC000020000100204E010020E1
:103AF00070B5FDF70DF902215820FDF769F810495E
:103B00001048FDF7DDF8002408E00F4805590D497D
:103B1000103160182946FDF7D3F8241D202CF4D36A
:103B2000002408E009480559064940316018294633
:103B3000FDF7C6F8241D062CF4D3FDF7B7F870BDC9
:103B40007856341200000E08E000002048010020E2
:103B50002DED048B82B0642001F0B5FF01201949DE
:103B600008601949C1F8A8022AE018486A4643F2D9
:103B70001561836898479DF904209DF9031002EBB5
:103B80000120FCF726FC41EC190B9FED110B53ECC7
:103B9000102BFCF7AFFB41EC180BFCF72BFC0E498C
:103BA00008600020074908604FF4967001F08BFF11
:103BB00001200549C1F8A4024FF4967001F083FF7B
:103BC000D3E70000A4824242008042426C01002000
:103BD000000000000000694024000020002101E0F6
:103BE0004A1C91B28142FBD37047000070B5064673
:103BF0000D46002400BF00E0641C04EB840059491A
:103C000011F82000584909688842F5D104EB840076
:103C1000544901EB8000807B012809D1052E07D192
:103C2000514908600020514908700120504908702E
:103C300004EB84004B4901EB8000807B022821D1FA
:103C4000052E1FD148480068012808D14748007850
:103C5000032804D101214748006800F02DFF04EB40
:103C60008400404901EB8000801C405D3E490860B3
:103C700000203E49087001203D4908703E49087007
:103C80003E49087004EB8400364901EB8000807BDC
:103C9000032834D1052E32D133480068022805D1DB
:103CA0000120314908603249087070BD2E48006813
:103CB00004280DD1062D0BD105202B4908600120C9
:103CC0002B4908702C490870002028490870ECE73F
:103CD00004EB8400234901EB80004078401EA84299
:103CE0000DD104EB840001EB8000801C405D1E4977
:103CF000086000201D49087001201D49087004EB70
:103D00008400184901EB8000807B042828D11648E4
:103D10000068052824D1052E22D119490020FEF77C
:103D200043FC18490020FEF7DBFB174815490968DA
:103D30000160164812490968016004EB84000949D2
:103D400001EB8000801C405D0749086000200749A6
:103D50000870012006490870074908700749087073
:103D600000BFA2E744000020380000203C000020F3
:103D70003E000020300000203D0000203F000020D9
:103D8000C4000020C8000020C0000020BC000020AB
:103D900070B505460C46012D1BD1012C05D19A4862
:103DA0000078401E9849087004E097480078401C4D
:103DB0009549087094480078042803DD032092494F
:103DC000087006E090480078042802D100208E494F
:103DD0000870022D1BD1012C05D18B480078401EA4
:103DE0008949087004E088480078401C86490870BA
:103DF00085480078062803DD05208349087006E021
:103E000081480078062802D100207F490870032DE0
:103E100025D120227D497E48FCF75AFA01207D49B0
:103E200008707D490870012C05D177480078401E44
:103E30007549087004E074480078401C72490870A5
:103E4000714800780B2803DD0A206F49087006E0EE
:103E50006D4800780B2802D100206B490870042DB2
:103E600024D16E486E490A680260898881800120E9
:103E700068490870012C05D163480078401E6249EA
:103E8000087004E060480078401C5F4908705E4894
:103E90000078082803DD07205B49087006E05A48CF
:103EA0000078082802D1002057490870052D71D1EB
:103EB00001205949087054480078E8B9012C05D10F
:103EC0005848C078401E5749C87006E0022C04D1FB
:103ED0005448C078401C5349C8705248C078642880
:103EE00003DD63204F49C87006E04E48C07864285F
:103EF00002D100204B49C8704348007801281CD1EA
:103F0000012C05D147484078401E4649487006E0DC
:103F1000022C04D143484078401C42494870414833
:103F200040780C2803DD00203E49487005E03D48FC
:103F3000407810B90C203B4948703348007802287B
:103F40001CD1012C05D137488078401E3549887036
:103F500006E0022C04D133488078401C3149887037
:103F6000304880781F2803DD01202E49887005E045
:103F70002C48807810B91F202A4988702248007880
:103F800003281ED1012C06D127480078401E26495F
:103F9000087007E02FE0022C04D123480078401C71
:103FA0002149087020480078182803DD17201E4991
:103FB000087006E01C480078182802D100201A4931
:103FC00008701148007804281DD1012C05D116482D
:103FD0004078401E1449487006E0022C04D1124873
:103FE0004078401C104948700F4840783C2803DD59
:103FF0003B200D49487006E00B4840783C2802D130
:1040000000200949487070BD3C000020E0000020FD
:10401000000100203D0000203F0000204E01002054
:1040200048010020C8000020C400002010B504464C
:10403000FE48006803286FD10120FD490870FD4843
:10404000007818BB032C05D1FB480078401EFA49C4
:10405000087006E0042C04D1F7480078401CF649AB
:104060000870F5480078042803DD0220F249087042
:1040700006E0F1480078032802D10020EE490870DC
:10408000052C03D1EC480078EC490870E948007829
:10409000012826D1032C05D1E74840683238E6498B
:1040A000486006E0042C04D1E34840683230E2491D
:1040B0004860E1484068B0F5FA6F03D10020DE495E
:1040C000486008E0DC484068B0F5FA6F03D94FF467
:1040D000FA60D9494860052C03D1D7484068D749D0
:1040E0004860D4480078022824D1032C05D1D24856
:1040F000007A401FD049087206E0042C04D1CE4853
:10410000007A401DCC490872CB48007A6E2804DD45
:104110006420C949087207E050E1C748007A6E2858
:1041200002D10020C4490872052C03D1C248007A8C
:10413000C2490872BF480078032823D1032C05D157
:10414000BD48C068401EBC49C86006E0042C04D1CC
:10415000B948C068401CB849C860B748C0681F2843
:1041600003D91E20B449C86006E0B348C0681F28C0
:1041700002D10020B049C860052C03D1AE48C06808
:10418000AE49C860AB480078042823D1032C05D180
:10419000A9480069401EA849086106E0042C04D122
:1041A000A5480069401CA4490861A34800691F286C
:1041B00003D91E20A049086106E09F4800691F2816
:1041C00002D100209C490861052C03D19A4800695E
:1041D0009A49086197480078052839D1032C09D1FC
:1041E000954890ED050ADFED960A30EE600A80ED05
:1041F000050A0AE0042C08D18F4890ED050ADFED8E
:10420000900A30EE200A80ED050A8B4890ED050AF1
:10421000F2EE040AB4EEE00AF1EE10FA04DB9FEDD0
:10422000890A80ED050A0BE0834890ED050AB5EE9A
:10423000C00AF1EE10FA03D29FED830A80ED050A61
:10424000052C05D17C4890ED050A7C4880ED050AD7
:1042500078480078062839D1032C09D1764890EDAA
:10426000060ADFED770A30EE600A80ED060A0AE002
:10427000042C08D1704890ED060ADFED710A30EE8B
:10428000200A80ED060A6C4890ED060AF2EE040A58
:10429000B4EEE00AF1EE10FA04DB9FED6A0A80ED5D
:1042A000060A0BE0644890ED060AB5EEC00AF1EE8E
:1042B00010FA03D29FED640A80ED060A052C05D1A1
:1042C0005D4890ED060A5D4880ED060A5948007881
:1042D000072823D1032C05D15748007F401E56499B
:1042E000087706E0042C04D15348007F401C524953
:1042F00008775148007F062803DB02204E490877E3
:1043000006E04D48007F022802DA05204A49087776
:10431000052C03D14848007F484908774548007874
:10432000082823D1032C05D14348407F401E424931
:10433000487706E0042C04D13F48407F401C3E49AA
:1043400048773D48407F062803DB02203A494877FA
:1043500006E03948407F022802DA052036494877CE
:10436000052C03D13448407F3449487731480078E0
:10437000092823D1032C05D12F48807F401E2E49C8
:10438000887706E0042C04D12B48807F401C2A4902
:1043900088772948807F222803DD1E2026498877D8
:1043A00006E02548807F1F2802D100202249887717
:1043B000052C03D12048807F204988771B4800685E
:1043C000042871D101201A4908701A48007818BBD6
:1043D000032C05D11D480078401E1C49087006E0DA
:1043E000042C04D119480078401C1849087017485B
:1043F0000078032803DD01201449087006E0134803
:104400000078022802D1002010490870052C03D141
:104410000E4800780E49087006480078012837D108
:10442000032C1AD109484078401E13E038000020C0
:104430003F0000203C00002000010020E0000020A0
:10444000CDCCCC3D0000000066661E414E01002030
:10445000480100207249487006E0042C04D17048DD
:104460004078401C6E4948706D484078032803DD51
:1044700001206B49487005E06948407810B9032075
:1044800067494870052C03D16548407865494870F4
:1044900065480078022823D1032C06D16048807833
:1044A000401E5F49887007E090E0042C04D15C480E
:1044B0008078401C5A49887059488078022803DD6A
:1044C00001205749887005E05548807810B90220CE
:1044D00053498870052C03D1514880785149887020
:1044E00051480078032823D1032C05D14C48C078CB
:1044F000401E4B49C87006E0042C04D14848C078DF
:10450000401C4749C8704648C078032803DD012095
:104510004349C87006E04248C078022802D1002012
:104520003F49C870052C03D13D48C0783D49C8704B
:104530003D480078042822D1032C05D13848007961
:10454000401E3749087106E0042C04D13448007934
:10455000401C3349087132480079032803DD0120EB
:104560002F49087105E02E48007910B903202C4925
:104570000871052C03D12A4800792A4908712A4874
:104580000078052822D1032C05D125484079401E0A
:104590002349487106E0042C04D121484079401C8D
:1045A0001F4948711E484079032803DD01201C493A
:1045B000487105E01A48407910B90320184948713C
:1045C000052C03D1164840791649487117480068F0
:1045D000052820D1012016490870032C05D1124866
:1045E0000078401E1049087006E0042C04D10E48E3
:1045F0000078401C0C4908700B480078052803DD42
:1046000004200949087006E007480078052802D10F
:10461000002005490870052C01D1FFF769FA10BD8B
:104620004E010020480100203C00002038000020FE
:104630003D00002000B587B001210803FDF7B2FD61
:10464000E020059002208DF8180000208DF81A0057
:1046500003208DF8190000208DF81B0005A92448BF
:10466000FCF722FC052211462148FCF765FC0522D7
:1046700007211F48FCF760FC4FF48270ADF8020080
:104680004FF44040ADF800000020ADF80400ADF854
:104690000E001820ADF80C000220ADF80600012035
:1046A000ADF808004002ADF80A000720ADF8100090
:1046B00069461048FEF7A5F801210E48FEF78AF872
:1046C0004FF4AA40059001208DF8180000208DF8C5
:1046D0001A0003208DF8190001208DF81B0005A990
:1046E0000548FCF7E1FBFCF785FE07B000BD0000C4
:1046F0000000024000300140001002401CB5FEF7EF
:104700001FFBFFF797FF4FF6FF70F0234FF4A072E7
:10471000002100900846FCF748FEFFF7A9F90023A6
:104720000222012126A000F0D7FD264908600021C1
:1047300025A000F041F92849086014200421CB018C
:104740000022CDE90010254925A001F094F92A495D
:1047500008600846006801F0ABFA142002210B0241
:104760000022CDE90010254925A001F084F928494F
:1047700008600846006801F09BFA1E2003214FF4F0
:1047800000730022CDE90010224923A001F073F943
:10479000244908600846006801F08AFA14200321C1
:1047A00080230022CDE900101F4920A001F063F909
:1047B000214908600846006801F07AFA00201CBD13
:1047C0006B657900D80000206B65746374726C5F50
:1047D0006576656E7400000030000020513B0008D3
:1047E00068756D6964696669636174696F6E5F7429
:1047F00068726561640000002C000020590D0008FB
:10480000466561747572655F746872656164000005
:1048100028000020756100087468726561645F6C2F
:1048200063640000D000002049600008746872656D
:1048300061645F4B65790000CC00002010B5044630
:1048400000F09CF8FFF75AFF10BD0EB57F200190D5
:10485000FF200290002000906846FDF70FFE0EBD7D
:1048600010B501210807FDF78DFC0120FDF740FC84
:104870000120FDF73BFD00BF4120FDF717FD00289B
:10488000FAD04FF48070FDF74DFD0120FDF744FD97
:10489000FDF7F2FE0248007808B1FFF7D6FF10BD21
:1048A000DC00002010B50246012000E050430B1E42
:1048B000A1F10104E1B2F9D110BD000030B51A4CEC
:1048C000436824681919884215D04B889BB9174B47
:1048D0001B6899420FD0164B1B688B4201D1144BB9
:1048E00018604B684360104B1B68C31A0E4D4C6830
:1048F0002D682C44A3600C4C836824681A198242EA
:1049000011D053887BB90A4B1B68834201D1084BF5
:104910001A6043685360044B1B68D31A024D446805
:104920002D682C44A36030BD800E0020840E002032
:10493000880E00201CB5142002210B020022CDE9B4
:104940000010044904A001F096F80446204601F046
:10495000AFF91CBD3D4800086D61696E00000000A4
:1049600010B5044C02E020688047241D02488442B0
:10497000F9D310BD088800080C88000810B5044C55
:1049800002E020688047241D02488442F9D310BD0C
:104990000C8800081088000810B5FBF711FC0446CD
:1049A00004480088401C00B2024908802046FBF7FA
:1049B0000BFC10BDF80E002070B505460E462946CA
:1049C000032000F09BFD04460CB9204670BD6672C2
:1049D000204600F000FB0020E0612046F6E72DE9CC
:1049E000FF4705460E461746DDF8308026B94FF0E2
:1049F000FF3004B0BDE8F0874FF0FF3901F030F927
:104A0000044600202063FBF7DBFB824607F0010031
:104A100030B1E8693040B0420AD14FF0000907E0F8
:104A200007F0020020B1E869304008B14FF00009FA
:104A3000B9F1000F0DD1B8F1000F03D0E869304093
:104A4000C8F8000007F0040088B3E869B043E861E3
:104A50002DE0039818B96FF00100206327E0E663AA
:104A600084F840706A7A214605F1140000F07DFA5E
:104A70000398002809DD03AA002104F14C0001F08D
:104A8000EDF904F14C0001F02DFA5046FBF79CFBC8
:104A900000F0B2FD206B08B1206BAAE7FBF790FB9A
:104AA0008246B8F1000F02D0E06BC8F80000504613
:104AB000FBF78AFB206B9CE72DE9F04704460F4685
:104AC0001FB94FF0FF30BDE8F0874FF00008FBF74B
:104AD00077FB8246E0693843E06104F1140000F09E
:104AE000C0FA002838D1666932E0A6F114054FF00B
:104AF000FF3995F8400000F0010040B1E86BE16932
:104B00000840E96B884211D14FF000090EE095F89A
:104B1000400000F0020048B1E86BE169084028B1AC
:104B2000E86BE1690840E8634FF000093668B9F1C5
:104B3000000F0DD195F8400000F0040018B1E069B5
:104B4000E96B8843E061284601F06CF84FF00108FA
:104B500004F114008642C8D15046FBF735FBB8F18A
:104B6000010F01D100F048FD0020ACE710B5FBF7C4
:104B700027FB04460B480088401E00B20949088004
:104B80000846B0F90000002807DC00200880204615
:104B9000FBF71AFB00F030FD02E02046FBF714FBA8
:104BA00010BD0000F80E002070B5054605B970BDB7
:104BB0001D480068854203D31C480068854200D325
:104BC000F5E7A5F10C044FF0FF31194800F0DEFDC8
:104BD000608818B12088B0F5F55F08D015A000F006
:104BE00003FA23886288214619A000F0FDF900200D
:104BF00060804FF4F550208021480068844201D243
:104C00001F480460084960680968611A401A1D4914
:104C10000968081A1B4908602046FFF74FFE044840
:104C200000F097FD00BFC2E7800E0020840E002038
:104C3000A0240020746F2066726565206120626187
:104C400064206461746120626C6F636B3A0A0000D7
:104C50006D656D3A203078253038782C2075736575
:104C60006420666C61673A2025642C206D61676959
:104C70006320636F64653A203078253034780A0009
:104C8000880E0020900E002000487047A0120020DF
:104C900000487047A022002070B5234800684FF4F8
:104CA0007A72B0FBF2F1481EB0F1807F00D31BE0B6
:104CB000481E4FF0E022506150170F22002807DAFB
:104CC00013071D0E194B00F00F04241F1D5503E0A0
:104CD00013071C0E164B1C5400BF00204FF0E0229F
:104CE00090610720106100BFFBF774FEFDF7EAF842
:104CF000104801688847002142F20F70FDF792FECC
:104D0000FBF72EFEFEF7DCF8FCF7CEFAFFF7A8FD66
:104D1000FFF726FEFFF7BCFF0446FFF7B5FF054689
:104D2000214600F0DFFD70BD0000002018ED00E01E
:104D300000E400E06C01002010B50446FFF72CFEF3
:104D400019E020780A280AD10D210E48FDF7F4FF5A
:104D500000BF80210B48FDF753FF0028F9D014F85D
:104D6000011B0848FDF7E8FF00BF80210548FDF75B
:104D700047FF0028F9D020780028E2D1FFF7F6FE9F
:104D800010BD00000010014070B5044619480068CD
:104D900038B12046174909688847054605B970BDEE
:104DA00000BF15A0E16900F01FF917A0A16900F08C
:104DB0001BF919A0616900F017F91BA0216900F027
:104DC00013F91DA0E16800F00FF91FA0A16800F021
:104DD0000BF921A0616800F007F923A0216800F019
:104DE00003F900F03DFF0546294623A000F0FCF83A
:104DF00000BFFEE7280F00207073723A203078253C
:104E00003038780A000000002070633A203078259E
:104E10003038780A00000000206C723A2030782583
:104E20003038780A000000007231323A203078259C
:104E30003038780A000000007230333A203078258C
:104E40003038780A000000007230323A203078257D
:104E50003038780A000000007230313A203078256E
:104E60003038780A000000007230303A203078255F
:104E70003038780A0000000068617264206661754D
:104E80006C74206F6E207468726561643A202573BB
:104E90000A000000F0B504460D461646301D20F00D
:104EA000070044380146002203E00D4F41F822700C
:104EB000521C112AF9D34D624FF0000CC1F828C0E2
:104EC000C1F82CC0C1F830C0C1F834C08B63CC63CA
:104ED0004FF0807CC1F840C000270F60F0BD00009B
:104EE000EFBEADDE10B5FBF76BF904460448007861
:104EF000401C034908702046FBF766F910BD00000E
:104F00007C0E002010B5FBF75BF9044604480078DE
:104F1000401E034908702046FBF756F910BD0000FB
:104F20007C0E002070B504462068A0F114052846C8
:104F300000F078FE002070BD70B505460EE0FBF76E
:104F40003FF906462868A0F114044FF0FF302063B3
:104F5000204600F067FE3046FBF736F9284600F0A1
:104F600080F80028EBD0002070BD2DE9F041054607
:104F70000C469046204600F0B1FEB8F1000F03D079
:104F8000B8F1010F23D105E004F11401284600F027
:104F900061F81CE02E680FE0A6F1140794F83500C4
:104FA00097F83510884206DA04F1140107F114006D
:104FB00000F050F802E03668AE42EDD100BFAE42DC
:104FC00004D104F11401284600F044F800BF00BFEA
:104FD0000020BDE8F08110B5044604F1140000F093
:104FE0001BF8002010BD00000FB438B505A80090D4
:104FF0007F210848009B049AFDF7CAFF04467F2CD6
:1050000000D97F240348FFF797FE0020009038BCAA
:105010005DF814FB20240020406000607047406071
:10502000006070474060006070470268516002682D
:105030000A600160486070470268516002680A6057
:105040000160486070470268516002680A60016050
:10505000486070474268116042684A604160086079
:10506000704701460868884201D10120704700203E
:10507000FCE701460868884201D101207047002002
:10508000FCE7D0E900215160D0E9001211604060D6
:1050900000607047D0E900215160D0E90012116032
:1050A00040600060704700002DE9F041054615B9E9
:1050B0000020BDE8F081E81C20F003054E480068A0
:1050C000854201D90020F4E70C2D00D20C254FF0C9
:1050D000FF314A4800F05AFB4948006849490968CD
:1050E000461A7EE04748006884196088002874D119
:1050F00006F10C006168081AA8426ED306F10C0094
:105100006168091A05F11800814230D306F10C00DC
:1051100000EB05083B48006800EB08074FF4F5502A
:1051200038800020788060687860BE60C4F80480B1
:10513000012060803048796800680C30814205D0D9
:105140003049786809680844C0F808802E4801682A
:1051500005F10C0008442C4908602C4800680968D7
:10516000884219D2284800682849086014E00120C4
:105170006080244960680968611A401A22490968F8
:10518000084421490860214800680968884203D220
:105190001D4800681D4908604FF4F55020801848EC
:1051A0000068844212D107E015480068406815493C
:1051B000096808441249086011480068408828B10D
:1051C0000F480068124909688842EDD10B4800F089
:1051D000C0FA04F10C006CE7FFE70A4800683044AD
:1051E000466805480068401BB0423FF67BAF034865
:1051F00000F0AFFA00205CE78C0E0020A024002015
:10520000880E0020800E0020900E0020940E0020BA
:10521000840E00202DE9F0410F46164604463D4617
:105220003346102B28D305F0030C04F003084CEA96
:10523000080CBCF1000F1FD121462A4610E052F89D
:1052400004CB41F804CB52F804CB41F804CB52F81C
:1052500004CB41F804CB52F804CB41F804CB103B0B
:10526000102BECD204E052F804CB41F804CB1B1F06
:10527000042BF8D20C46154603E015F801CB04F8D0
:1052800001CBB3F1000CA3F10103F6D1BDE8F0812D
:10529000F0B50C460546E6B2042A15D300F0030724
:1052A00097B9014646EA062343EA034304E008C1EE
:1052B00008C108C108C1103A102AF8D201E008C19B
:1052C000121F042AFBD20D4601E005F8016B171EE0
:1052D000A2F10102F9D1F0BD2DE9F0470746884659
:1052E00091469A463946052000F008F9044614B95B
:1052F0002046BDE8F08784F809A02046FFF76BFE42
:1053000008F1030020F003002084A4F82290218CEF
:10531000091D628C01FB02F0FFF7C6FEE061E06947
:1053200020B9204600F018F80020E2E70020A06233
:10533000E0622063002508E0208C001DE16905FB88
:105340000016206B306026636D1C608CA842F3DC75
:105350000020A0842046CCE710B5044604F11400D8
:10536000FFF7EAFDE069FFF71FFC204600F0EBF8CD
:10537000002010BD2DE9FF4704460F4690464FF030
:10538000000900F06DFC0546FAF71AFF8246A08C72
:1053900048B9039838B95046FAF716FF6FF0010084
:1053A00004B0BDE8F0873CE000202863039830B9E2
:1053B0005046FAF709FF6FF001002863F0E7627AC0
:1053C000294604F11400FFF7D0FD039800280CDDF6
:1053D00000F0E8FC814603AA002105F14C0000F032
:1053E0003DFD05F14C0000F07DFD5046FAF7ECFE66
:1053F00000F002F9286B08B1286BD1E7FAF7E0FE5C
:105400008246039800280CDD00F0CCFCA0EB0909D3
:105410000398A0EB090003900398002801DA00200C
:105420000390A08C0028BFD0A66A3068A062E06A12
:10543000B04201D10020E062A08C401EA084504602
:10544000FAF7C2FE208C404501D2208C00E0404695
:105450000246311D3846FFF7DDFEFAF7B1FE8246FF
:10546000206B306026635046FAF7AEFE002097E7C7
:105470002DE9F04104460F461646208CB04203D277
:105480004FF0FF30BDE8F081FAF79AFE8046256BB9
:105490002DB94046FAF798FE6FF00200F2E728684F
:1054A00020634046FAF790FE0020286032463946D5
:1054B000281DFFF7AFFEFAF783FE8046E06A08B1C9
:1054C000E06A0560E562A06A00B9A562A08C401C94
:1054D000A08404F11400FFF7C4FD50B904F11400D6
:1054E000FFF720FD4046FAF76FFE00F085F8002038
:1054F000C8E74046FAF768FE0020C3E72DE9F0410F
:1055000005460F46284600F03BF80646F068FFF7D0
:10551000CBFD044614B90020BDE8F08125720020BF
:10552000607208223946204600F0C2F9FAF748FEB8
:10553000804604F10C01301DFFF777FD4046FAF775
:1055400043FE2046E8E770B50446FAF739FE054603
:1055500004F10C00FFF795FD2846FAF735FE2046CA
:10556000FFF722FB70BD70B50446FAF729FE054629
:1055700004F10C00FFF785FD2846FAF725FE70BD03
:10558000024600210AE0074800EB01100078904233
:1055900003D1044800EB01107047491C0629F2DBD7
:1055A0000020F9E7980E00202DE9F04104460D4651
:1055B00016462846FFF7E4FF074645F080002072B4
:1055C00008223146204600F073F9FAF7F9FD8046CB
:1055D00004F10C01381DFFF728FD4046FAF7F4FDF1
:1055E000BDE8F0810146087A00F0800008B1012092
:1055F00070470020FCE700002DE9F041FAF7E0FDDC
:1056000007461B48008868BB1A480068FDF7D6FCAF
:10561000461E194850F83600A0F1140417480068D7
:1056200084421BD016490E70144805680460154862
:10563000007848B904F11C0105F11C00FAF7C7FD18
:105640003846FAF7C1FD0CE004F11C0105F11C001D
:10565000FAF7BDFD3846FAF7B7FD02E03846FAF72B
:10566000B3FD02E03846FAF7AFFDBDE8F081000077
:10567000F80E0020040F0020C0240020FC0E0020A3
:10568000000F00207C0E002070B50446FAF798FD4C
:10569000054614F8340F20F00F0040F00100207090
:1056A0006278343C0A4B03EBC20004F114014268F7
:1056B000116042684A604160086000BF0549A06B04
:1056C00009680843034908602846FAF77DFD70BD64
:1056D000C0240020040F002070B50446FAF770FDC6
:1056E000054604F11400D0E900215160D0E9001210
:1056F00011604060006000BF94F83510094A02EB69
:10570000C1000168814201D1012100E0002129B1DD
:105710000548A16B00688843034908602846FAF7EA
:1057200053FD70BDC0240020040F00202DE9F0417E
:1057300004460D4616461F462A4601212046FFF71D
:1057400033FF2046FFF747FCA68367720020BDE8C1
:10575000F08170B504460025FAF732FD064604F1E3
:105760001400FFF77EFC28B904F11400FFF7DAFB00
:10577000012502E0A08B401CA0833046FAF724FDEF
:10578000012D01D1FFF738FF002070BD73B505462C
:10579000FAF716FD0646A88B002806DDA88B401EEA
:1057A000A8833046FAF710FD28E0019828B9304662
:1057B000FAF70AFD6FF001007CBD00F051FA0446D3
:1057C000002020636A7A214605F11400FFF7CDFB23
:1057D0000198002809DD01AA002104F14C0000F025
:1057E0003DFB04F14C0000F07DFB3046FAF7ECFC89
:1057F000FFF702FF206B08B1206BDDE70020DBE73D
:1058000008B509A0FFF7F0FB0AA0FFF7EDFB12A017
:10581000032300221946009012A0FFF7E5FB19A010
:10582000FFF7E2FB08BD00000A205C207C202F0A65
:10583000000000002D205254202D20202020205434
:105840006872656164204F7065726174696E67206B
:1058500053797374656D0A004E6F762031382032AB
:1058600030323400202F207C205C20202020202576
:10587000642E25642E2564206275696C642025736E
:105880000A0000002032303036202D2032303138EE
:1058900020436F707972696768742062792072742E
:1058A0002D746872656164207465616D0A00000082
:1058B00070B50346A2B118460C4600BF14F8016B40
:1058C00000F8016B3EB902E0002500F8015B551EAF
:1058D0002A1EF9D102E0551E2A1EEFD100BF00BFDB
:1058E000184670BD2DE9F04105460E46E81C20F033
:1058F000030726F00308B8F1180F09D9A8F118001A
:10590000B84205D3A8EB070018381E49086006E026
:10591000324629461CA0FFF767FBBDE8F081294805
:10592000076004684FF4F5502080164800680C307A
:1059300060600020A06060802249606809680844B7
:10594000214908604FF4F5500968088001201E497C
:10595000096848800B4800680C301B49096848609A
:10596000084800680C301849096888600023012243
:1059700016A11848FFF7DAFE1248006816490860B9
:1059800000BFCAE78C0E00206D656D20696E6974DA
:105990002C206572726F7220626567696E20616487
:1059A000647265737320307825782C20616E6420D2
:1059B000656E642061646472657373203078257845
:1059C0000A000000800E0020840E002068656170CF
:1059D00000000000A0240020880E002010B5002048
:1059E0000B490880002405E00A4901EBC400FFF7D9
:1059F00016FB641C082CF7DB072007490870002001
:105A000006490860064908600648FFF708FB10BD14
:105A1000F80E0020C0240020000F0020FC0E002003
:105A2000040F0020080F002070B508480068FDF73B
:105A3000C5FA451E064850F83500A0F11404054883
:105A4000046004F11C00FAF708FC70BD040F00208C
:105A5000C0240020FC0E002010B5002405E00449FD
:105A600001EBC400FFF7DEFA641C002CF7D010BD78
:105A7000100F002070472DE9FF5F06460F46904645
:105A80001D46DDE90EAB31460020FFF737FD8146AC
:105A9000B9F1000F03D1002004B0BDE8F09F284603
:105AA000FFF702FB044624B94846FFF74CFD0020EF
:105AB000F2E743463A46314648468DE8300CFDF75A
:105AC00017FF4846E8E710B50446204600F0CEF838
:105AD00010BD000070B512480468FAF771FB054666
