:020000040800F2
:10000000C82900209D010008A5010008A3020008DE
:10001000A9010008AB010008AD01000800000000C4
:10002000000000000000000000000000AF01000818
:10003000B101000800000000EF0100080B300008CB
:10004000B7010008B7010008B7010008992D0008A2
:10005000B7010008B70100084B100008B7010008FD
:10006000B7010008B7010008B7010008B701000890
:10007000B7010008B7010008B7010008B701000880
:10008000B7010008B7010008B7010008B701000870
:10009000B7010008B7010008B7010008B701000860
:1000A000B7010008B7010008B7010008B701000850
:1000B000B7010008B7010008B7010008B701000840
:1000C000B7010008B7010008B7010008B701000830
:1000D000B7010008B7010008B7010008B701000820
:1000E000B7010008052B0008B7010008B701000898
:1000F000B7010008B7010008B7010008B701000800
:10010000B7010008B7010008B7010008B7010008EF
:10011000B7010008B701000885300008B7010008E2
:10012000B7010008B7010008B7010008B7010008CF
:10013000B7010008B7010008B7010008B7010008BF
:10014000B7010008B7010008B7010008B7010008AF
:10015000B7010008B7010008B7010008B70100089F
:10016000B7010008B7010008B7010008B70100088F
:10017000B7010008B7010008B7010008B70100087F
:10018000B7010008B7010008DFF80CD000F094FBBD
:100190000048004753090008C82900200648804746
:1001A00006480047FEE7FEE7FEE7FEE7FEE7FEE75C
:1001B000FEE7FEE7FEE7FEE71D30000889010008C4
:1001C000EFF3108072B6704780F3108870473A4A98
:1001D0001368012B04D04FF001031360374A1060FD
:1001E000374A116037484FF0805101607047EFF394
:1001F000108272B63048016851B34FF000010160BF
:100200002E48016891B1EFF309811EF0100F08BF6D
:1002100021ED108B21E9F00F4FF000041EF0100FBC
:1002200008BF012441F8044D0068016024490968B1
:10023000096808C9B1E8F00F002B18BFB1EC108BAA
:1002400081F309884EF0100E002B18BF2EF0100E0F
:1002500082F310884EF0040E704719490860EFF3DE
:10026000148222F0040282F3148814494FF0000033
:10027000086011494FF00100086013484FF47F01F6
:10028000D0F8002041EA020101600E484FF0805191
:1002900001600E480068006880F3088861B662B6A5
:1002A0007047EFF3098000B505F092FD5DF804EBAF
:1002B0004EF0040E70470000700F0020680F002001
:1002C0006C0F002004ED00E020ED00E008ED00E000
:1002D00040EA01039B0703D009E008C9121F08C0C8
:1002E000042AFAD203E011F8013B00F8013B521E48
:1002F000F9D270472DE9FE4F804681EA0300C00F16
:100300000C46009021F0004123F00045B8EB0200BC
:10031000A94105D24046214690461C460B4602465E
:1003200023F00040104347D0270DC7F30A00C3F362
:100330000A510290401A019040286BDAC3F313006F
:1003400040F4801B0098924620B10023D2EB030AB0
:1003500063EB0B0B01985946C0F14002504600F088
:10036000C5F906460D4650465946019A00F0CDF9AA
:1003700010EB08006141002487EA115284EAE77318
:100380001A4340D0009A62B3019A012A4FEA0752F9
:1003900015DC001B61EB02014FF0004202EA07523C
:1003A000CDE90042001C41F5801132462B4600F099
:1003B00004FA03B0BDE8F08F40462146F9E7001B80
:1003C00061EB0201001C41F5801300185B4120180D
:1003D000A2F5001747EB030140EAD570B6196D414D
:1003E00011E06D084FEA360645EAC0754FEA07523C
:1003F000001B61EB0201001C41F5801149084FEA26
:1004000030000019514132462B4603B0BDE8F04F91
:1004100000F0C4B90098012240000023D0EB020292
:1004200063EBE073009821464FEAE074B8EB0000FC
:1004300061EB0401E9E783F000435BE781F00041F1
:1004400058E72DE9FE4F81EA030404F0004421F04F
:10045000004100944FF0000B23F0004350EA0104E8
:100460005ED052EA03045BD0C3F30A54C1F30A55C9
:100470002C44A4F2F3340194A0FB0254C1F3130101
:1004800041F48011C3F3130343F4801301FB0244CE
:1004900000FB034E840A970A44EA815447EA8357D3
:1004A000A4FB076802958D0A05FB07854FEA932C8C
:1004B00004FB0C542705029D4FEA065847EA1637FD
:1004C000B5EB08056EEB070C870E920E47EA811715
:1004D00042EA8312A7FB0201B6EB0B0164EB0004B6
:1004E0002B0D43EA0C335E1844EB1C50DA465146A0
:1004F000E7FB0201C5F313044FEA0B3343EA14533D
:100500004FEA0432019C43EA0603A4F10C0402946E
:10051000009CCDE900B400F050F903B0BDE8F08FC5
:1005200000200146F9E72DE9F04D81EA030404F0CB
:10053000004B21F0004514464FF0000A23F0004123
:1005400050EA050220D054EA01021DD0C5F30A5733
:100550000246C5F31303C1F31300C1F30A5640F476
:10056000801543F48013A7EB0608101BD64608F24B
:10057000FD3873EB050002D308F1010801E0921881
:100580005B41B8F1000F03DA00200146BDE8F08DB1
:1005900000204FF48011064684460EE0171B73EBD3
:1005A000050705D3121B63EB050306434CEA010C58
:1005B00049084FEA300092185B4150EA0107EDD13B
:1005C00052EA030012D082EA040083EA05010843DC
:1005D00005D0101BAB4106D20122002306E0002209
:1005E0004FF0004302E06FF0010253101AEB0600D7
:1005F0004CEB085110EB0A0041EB0B01BDE8F04D4C
:1006000000F0CCB80EB5C10F80EAE0700844CA070C
:10061000002140F233438DE80E000A460B4600F0FD
:10062000CCF803B000BD01F0004330B421F000412C
:1006300050EA010206D00A0DA2F56072C1F313015F
:10064000002A02DC30BC00207047440F44EAC10499
:10065000C100E01830BC00EBC25000F068B830B503
:100660000B46014600202022012409E021FA02F570
:100670009D4205D303FA02F5491B04FA02F528440A
:10068000151EA2F10102F1DC30BD2DE9F05F054637
:10069000002092469B4688460646814640241BE041
:1006A000284641464746224600F018F953465A4626
:1006B000C01A914110D311461846224600F016F890
:1006C0002D1A67EB01084F4622460120002100F059
:1006D0000DF817EB00094E41201EA4F10104DFDCE8
:1006E000484631462A464346BDE8F09F202A04DBAF
:1006F000203A00FA02F1002070479140C2F1200335
:1007000020FA03F3194390407047202A06DBCB17E9
:10071000203A41FA02F043EAE07306E041FA02F3BC
:10072000D040C2F120029140084319467047002989
:10073000A8BF7047401C490008BF20F00100704767
:1007400010B4B0FA80FC00FA0CF050EA010404BFC7
:1007500010BC704749B1CCF1200421FA04F411FA1D
:100760000CF118BF012121430843A3EB0C01CB1D61
:100770004FEA00614FEA102042BF002010BC7047D2
:1007800000EBC35010440029A4BF10BC7047401CAC
:10079000490008BF20F0010010BC704710B5141EBE
:1007A00073F1000408DA401C41F1000192185B412A
:1007B0001A4301D120F0010010BD2DE9F04D924601
:1007C0009B4611B1B1FA81F202E0B0FA80F2203218
:1007D0009046FFF78BFF04460F4640EA0A0041EAC5
:1007E0000B0153465A46084313D0114653EA010001
:1007F00019D0C8F14002504600F070F805460E4688
:10080000504659464246FFF771FF084305D0012084
:1008100004E020463946BDE8F08D0020054346EA55
:10082000E0762C4337430A986305E40AA0EB0800FE
:100830000022FD0A44EA47540A3002D5002001464E
:10084000E9E7010510196941DDE908450019694129
:10085000BDE8F04DA2E7C1F30A52C1F3130140F223
:10086000FF3341F480119A4202DA002001467047BA
:1008700040F233439A42A2F2334202DC524200F089
:100880002DB8FFF733BF000030B5041E71F100042E
:1008900004DB4FF00044404264EB0101141E73F18D
:1008A000000405DB1C464FF00043524263EB040397
:1008B000994208BF904230BD064C074D06E0E06803
:1008C00040F0010394E8070098471034AC42F6D397
:1008D000FFF75EFC2077010840770108202A04DB3F
:1008E000203A21FA02F00021704721FA02F3D040A9
:1008F000C2F12002914008431946704770B58C1828
:1009000010F8015B15F0070301D110F8013B2A1123
:1009100006D110F8012B03E010F8016B01F8016B10
:100920005B1EF9D12B0705D40023521E0DD401F80C
:10093000013BFAE710F8013BCB1A921C03E013F8D5
:10094000015B01F8015B521EF9D5A142D8D300200A
:1009500070BD10B5FFF734FC06F0F1FE002010BDAD
:100960001CB50121084601F0BFFF40200090012086
:100970008DF8040003208DF8050000208DF8060096
:1009800002208DF807006946034800F0C3FD4020AF
:10099000014948831CBD0000000002401CB50A202C
:1009A00006F069FA002419E001A84FF0FF3306228F
:1009B000012100900A48006804F0EDFF044634B9B4
:1009C000019800F0010010B101200649086040F6CE
:1009D000B83006F050FA002002490860E4E7000051
:1009E00058000020A002404210B504460C48007890
:1009F000401C0B49087001200A490870084800781B
:100A0000032807D100200649087001210648006824
:100A100005F02EF80548006806F0D2FC10BD000075
:100A200069000020680000205800002064000020B9
:100A30001CB50121084601F057FF4FF4807000906B
:100A400001208DF8040000208DF8060002208DF8AA
:100A5000070000208DF805006946034800F05AFDA4
:100A60000020024908601CBD00000240A002404274
:100A700010B50021084802F06BFB0121064802F086
:100A800061FB0020054908800349486201210248B2
:100A900002F05EFB10BD000000100040A80E002018
:100AA000002400254FF47A7006F0E5F93DE01F4878
:100AB0000078401C1D4908701D48007888B1084620
:100AC000007808280DDB002019490870292319A295
:100AD00000212348006804F0FBFE01240020134994
:100AE0000870012C0FD11148007801280BDB0F236F
:100AF0001CA200211A48006804F0EAFE0125002427
:100B000000200A490870012D0BD1084800780128FF
:100B100007DB0C2317A200211148006804F0D8FE5F
:100B200000254FF47A7006F0A6F9C0E79001002086
:100B30009101002041542B43495053544152543D9C
:100B400022544350222C223139322E3136382E3164
:100B5000302E313030222C313131310D0A0000007D
:100B60006C00002041542B4349504D4F44453D31CA
:100B70000D0A000041542B43495053454E440D0A81
:100B80000000000070B50025002413E00A4800684A
:100B900018B1681CC5B2002405E0601CC4B2032C67
:100BA00001DD002070BD0F2003F04AFCC82D01DBE1
:100BB0000120F7E7EAE70000000240421CB50121EE
:100BC000102001F091FE2020009001208DF80400FB
:100BD00000208DF8060002208DF8050069460448C3
:100BE00000F098FC2021024800F00AFD1CBD000026
:100BF0000010024070B52DED068B00F0E9F800F012
:100C00008DF8CC2000F0FAF8442000F0F7F800F05E
:100C1000DFF800F083F8CC2000F0F0F8BE2000F000
:100C2000EDF800F0C3F8054600F0C0F806463002C3
:100C300004B22C43002C12DAE043401CFFF7E2FC24
:100C400041EC1A0B9FED1C0B53EC102BFFF7F9FB3B
:100C500041EC190BFFF7E7FC08EE100A10E0204604
:100C6000FFF7D0FC41EC1A0B9FED130B53EC102B4C
:100C7000FFF7E7FB41EC190BFFF7D5FC08EE100A74
:100C80009FED0F0AB4EEC08AF1EE10FA03DD9FED7E
:100C90000C0AB0EE408AB2EE0E0AB4EEC08AF1EE53
:100CA00010FA03D2B2EE0E0AB0EE408AB0EE480A55
:100CB000BDEC068B70BD0000000000000000B03FDE
:100CC0000000AA4210B5FFF779FF00F081F800F0AC
:100CD00025F810BD1CB52020009000208DF80400E0
:100CE00001208DF807006946014800F013FC1CBD87
:100CF000001002401CB52020009001208DF8040057
:100D000000208DF8060002208DF805006946024893
:100D100000F000FC1CBD00000010024010B50024D3
:100D2000FFF7D8FF04E0601CC4B2012000F038F9DE
:100D300020210F4800F059FC08B1642CF3DB642C2F
:100D400001DB012010BD002404E0601CC4B20120BE
:100D500000F026F92021064800F047FC08B9F02CE5
:100D6000F3DBF02C01DB0120ECE70020EAE70000D8
:100D70000010024010B5FFF7BDFF20210A4800F027
:100D80003DFC0A2000F00CF9FFF7A4FF20210648E3
:100D900000F02BFC012801D1012400E000242D20CB
:100DA00000F0FEF8204610BD0010024070B500268D
:100DB000002408E0FFF7DEFF054605FA04F03043A3
:100DC000C6B2601CC4B2082CF4DB304670BD000013
:100DD00010B5FFF78FFF2021074800F00FFC40F20D
:100DE000EE2000F0DDF82021034800F009FC0F2080
:100DF00000F0D6F810BD00000010024070B50446A7
:100E0000FFF778FF002522E004F00106641076B1B8
:100E10002021104800F0F2FB082000F0C1F820214A
:100E20000C4800F0EDFB3A2000F0BAF80DE020216C
:100E3000084800F0E3FB462000F0B2F82021054806
:100E400000F0DEFB022000F0ABF8681CC5B2082DF4
:100E5000DADB70BD0010024000B587B00121084602
:100E600001F042FD0121102001F06EFD00208DF8FF
:100E70001A0001208DF81B0002208DF819008DF852
:100E800018000002059005A91B4800F043FB022052
:100E90008DF818004002059005A9174800F03AFBAC
:100EA00007220A21144800F07DFB0722092112487D
:100EB00000F078FB4FF4E13001900020ADF808001D
:100EC000ADF80A00ADF80C00ADF810000C20ADF83C
:100ED0000E0001A9094802F099FA01F088FB0122ED
:100EE00040F22551054802F06CFA0121034802F056
:100EF0004FFA07B000BD00000000024000100140A2
:100F000000B587B00121084601F0EEFC012148043C
:100F100001F00AFD00208DF81A0001208DF81B0059
:100F200002208DF819008DF818000420059005A9FD
:100F3000194800F0EFFA02208DF81800059005A975
:100F4000154800F0E7FA07220221134800F02AFBB7
:100F500007220121104800F025FB4FF4E1300190F9
:100F60000020ADF80800ADF80A00ADF80C00ADF8AF
:100F700010000820ADF80E0001A9084802F046FA5A
:100F8000012240F22551054802F01BFA01210348D5
:100F900002F0FEF907B000BD00000240004400402E
:100FA00010B50446204607F0ABFE10BD2DE9F04712
:100FB00006460F46904699460025444641E07A1B76
:100FC00091B2321B90B24A4600F009FD7A1B91B2F1
:100FD000321990B24A4600F002FD3A1991B2721BE2
:100FE00090B24A4600F0FBFC3A1B91B2721B90B2E1
:100FF0004A4600F0F4FC7A1991B2321990B24A468E
:1010000000F0EDFC3A1B91B2721990B24A4600F022
:10101000E6FC3A1991B2721990B24A4600F0DFFC30
:101020007A1991B2321B90B24A4600F0D8FC6D1C7E
:1010300005FB05F004FB040108FB08F0814200DD1C
:10104000641EA542BBDDBDE8F08710B5012000F0AD
:1010500007F8FFF797FD08B101F0B8FF10BD0000D9
:101060000149086070470000143C014070B5044617
:101070000A460026092502B909E0012A01D1160213
:1010800005E0022A01D1160201E04FF4407600F09B
:101090009FF80546092D28D11548006820F44070B6
:1010A0001349086008460068304308600846006835
:1010B00020F0F80008600846006844F00201084388
:1010C0000B4908600846006840F48030086000F072
:1010D0007FF805460648006820F0020004490860D1
:1010E0000846006820F0F8000860284670BD00003F
:1010F000103C024009201349096801F48031B1F520
:10110000803F01D101201CE00E49096801F0100167
:1011100009B1062015E00B49096801F4807109B195
:1011200002200EE00749096801F0E00109B107203B
:1011300007E00449096801F0020109B1082000E054
:10114000092070470C3C02400348006840F0004012
:101150000149086070470000103C024030B502466B
:101160000C46092500F034F80546092D19D10E4822
:10117000006820F440700C4908600846006840F49C
:10118000007008600846006840F0010008601460C4
:1011900000F01EF805460448006820F001000249EE
:1011A0000860284630BD0000103C02400548006839
:1011B00000F0004028B1044802490C390860034897
:1011C00008607047103C024023016745AB89EFCDB2
:1011D00008B509200090FFF78DFF009002E0FFF7AF
:1011E00089FF00909DF800000128F8D09DF80000CC
:1011F00008BD00002DED028B90B000200F908346BB
:101200000D9000BF00BF00BF00BF00BF00BF4FF484
:1012100096700A9000BF0020099000BF0620089039
:101220004FF0000900264FF0000A002007904FF40D
:101230007A7005F020FE53E10EA80123052219461D
:101240000090A848006804F0A6FB0F900F9800BB20
:101250000E9801281DD10D99481C00EBD071491042
:10126000A0EB4101C9B20D910D98012808D1834628
:1012700001219D4801F06CFF40209C49088308E053
:101280004FF0000B0021984801F062FF4020974981
:101290004883BBF1010F38D195480078A0BB944832
:1012A00040680C9001A80C9901F00AFA9148006876
:1012B00010B1012822D10EE04FF416608A4938316E
:1012C000086001208B4908608B480068782801DDA0
:1012D0000120086013E0894890ED000AB8EEC00ACA
:1012E00001A802F025F9B0EE408ABCEEC80A10EE63
:1012F000100A80B27C493831086000E000BF00BFAE
:10130000142005F0B8FD03E0FFE7C82005F0B3FDA9
:10131000BBF1010F7DD1764800780128FAD17448DD
:10132000C068642100FB01F57148006948430B90D7
:101330006F4890ED050ADFED720A20EE200ABCEE40
:10134000C00A10EE107A90ED060ADFED6D0A20EE6D
:10135000200ABCEEC00A10EE108A0898401E5045C4
:101360000BDD0AF1010000F0FF0A63480068801BF2
:1013700090FBFAF000EB06090AE05F480068811B69
:10138000089891FBF0F000EB06094FF0000A0026E8
:101390005948066805F1640081450AD95948007822
:1013A000012806D10020574908705748006805F009
:1013B0008BFF099830B1012809D002283FD00328BB
:1013C0007ED168E0FFF754FB0120099080E02946B8
:1013D00001A801F029FA494890ED000AB8EEC00AC8
:1013E00001A802F0A5F8B0EE408ABCEEC80A10EEE3
:1013F000100A80B23C49383108604448406A0A21EA
:10140000B0FBF1F04249098801EB4102C2EBC11186
:1014100000E062E000EBC1040798814501DDCDF8F2
:101420001C9007F13200844208D305F11E01079891
:10143000884201D9FFF71CFB0220099048E001A86F
:101440000B9901F0BBF92D4890ED000AB8EEC00AE7
:1014500001A802F06DF8B0EE408ABCEEC80A10EEAA
:10146000100A80B22049383108602848406A0A21B1
:10147000B0FBF1F12648008800EB4002C2EBC0103F
:1014800001EBC00408F13200844203D3FFF7F0FA05
:10149000012009901CE04FF4FA60134938310860CC
:1014A0001A48406A0A21B0FBF1F01949098801EB9A
:1014B0004102C2EBC11100EBC1040A98844200E072
:1014C00005E003D3FFF7D4FA0120099000E000BF44
:1014D00000BF142005F0CFFC02E0C82005F0CBFCD3
:1014E000AAE6000054000020000400400000024072
:1014F00004010020380000203400002030000020CB
:1015000000007A44680000206400002000100040C1
:10151000A80E0020F0B50A4600210023002400BFD9
:101520003DE0012505FA01F3156805EA03049C4234
:1015300034D105684F000326BE40B54305601579D8
:101540004E00B5400668354305601579012D02D07F
:101550001579022D16D185684F000326BE40B5438C
:10156000856055794E00B54086683543856045688D
:1015700001268E40B5434560456896798E40B6B2E7
:1015800035434560C5684F000326BE40B543C5607E
:10159000D5794E00B540C6683543C560491C102951
:1015A000BFD3F0BDF0B5002300244D07ED0E02FAC5
:1015B00005F3CE1000F1200555F826504E07F70E22
:1015C0000F26BE40B543CF1000F1200646F8275045
:1015D000CE1000F1200555F8265045EA0304CE1040
:1015E00000F1200545F82640F0BD024600201369B1
:1015F0000B400BB1012000E0002070474183704791
:10160000018370477CB505460020019000900024BE
:101610000A21302002F052F801AA0121302002F004
:101620000FF80DF101020321062002F009F89DF8E0
:10163000000000069DF8011000EB01409DF802102B
:1016400000EB01209DF803104418B4F5000F01DBF6
:10165000A4F180742046E11704EB11610C122C6098
:101660007CBD10B504460021204600F099F81420F6
:1016700003F0D2F80121204600F081F8142003F095
:10168000CBF80021204600F07AF8142003F0C4F8CB
:101690000121204600F084F810BD1CB5044601214C
:1016A000022001F021F90121102001F01DF9A068AC
:1016B000009002208DF8050001208DF80400002024
:1016C0008DF8060001208DF8070069462068FFF7B5
:1016D00021FF01208DF80600E068009069466068EF
:1016E000FFF718FF0121204600F049F801212046AC
:1016F00000F056F81CBD10B504460121204600F04C
:101700004FF8142003F088F80121204600F037F844
:10171000142003F081F80021204600F030F8142056
:1017200003F07AF810BD2DE9F04107460D4600247C
:10173000002617E06006040E0121384600F01FF86D
:10174000142003F069F8384601F044FB08B1601C2E
:10175000C4B20021384600F012F8142003F05CF8FF
:10176000701CC6B2082EE5DB1DB93846FFF7C3FF73
:1017700002E03846FFF775FF2046BDE8F08170B5FE
:1017800004460D46012D05D1228991B22068FFF74C
:1017900037FF04E0228991B22068FFF72FFF70BD68
:1017A00070B504460D46012D05D1A28991B260683D
:1017B000FFF726FF04E0A28991B26068FFF71EFFE1
:1017C00070BD70B506460C4600213046FFF7D7FFC6
:1017D000002526E004F0800020B101213046FFF70B
:1017E000DFFF03E000213046FFF7DAFF142003F0AB
:1017F00013F801213046FFF7C2FF142003F00CF864
:1018000000213046FFF7BBFF072D03D101213046F1
:10181000FFF7C6FF6006040E142002F0FDFF681CEF
:10182000C5B2082DD6DB70BD10B504460121204697
:10183000FFF7A5FF01212046FFF7B2FF142002F0B9
:10184000EBFF00212046FFF7ABFF142002F0E4FF7E
:1018500000212046FFF793FF142002F0DDFF10BDAA
:1018600010B5044600212046FFF79AFF01212046CB
:10187000FFF785FF142002F0CFFF01212046FFF77C
:101880008FFF142002F0C8FF10BD70B5054601217E
:101890002846FFF785FF142002F0BEFF01212846ED
:1018A000FFF76DFF142002F0B7FF284601F092FA0F
:1018B000012801D1012400E0002400212846FFF77F
:1018C0005EFF142002F0A8FF204670BD1CB5012168
:1018D000132001F009F81020009000208DF804007A
:1018E00003208DF8050001208DF8070069462A487D
:1018F000FFF710FE0420009001208DF80400002066
:101900008DF8060003208DF8050000208DF80700F3
:1019100069462248FFF7FEFD0121102000F0E4FF98
:101920004FF46040009000208DF804008DF8060010
:1019300003208DF8050001208DF807006946164840
:10194000FFF7E8FD0121022000F0CEFF4FF44060D8
:10195000009000208DF804008DF8060003208DF81B
:10196000050001208DF8070069460C48FFF7D2FDFD
:101970004FF48070009001208DF8040000208DF855
:10198000060003208DF8050002208DF80700694647
:101990000348FFF7BFFD1CBD0010024000040240D9
:1019A000000802402DE9F04107460C4615461E4648
:1019B0002A2000F07DFD384600F06AFD284600F040
:1019C00067FD2B2000F074FD204600F061FD3046DD
:1019D00000F05EFD2C2000F06BFDBDE8F08170B5DD
:1019E00004460D4616462B46224629462046FFF75A
:1019F000D9FF304600F04CFD70BD2DE9F04706469A
:101A00000F4614461D46DDF820A0681E83B2601EF6
:101A100082B239463046FFF7C5FFB8460EE0B14600
:101A200006E0504600F034FD09F101001FFA80F98C
:101A3000A145F6DB08F101001FFA80F8A845EEDBAE
:101A4000BDE8F08710B503F0B1FB4FF400517248C8
:101A5000FFF7D6FD0A2002F003FD4FF400516E4857
:101A6000FFF7CCFD0A2002F0FBFC4FF400516A485E
:101A7000FFF7C6FD782002F0F3FC4FF400716748D1
:101A8000FFF7BEFD112000F013FD782002F0E8FC06
:101A9000362000F00DFDA02000F003FD3A2000F0FC
:101AA00007FD052000F0FDFCB22000F001FD05203F
:101AB00000F0F7FC052000F0F4FC002000F0F1FC41
:101AC000332000F0EEFC332000F0EBFCB72000F0F8
:101AD000EFFC352000F0E5FCBB2000F0E9FC212004
:101AE00000F0DFFCC02000F0E3FC2C2000F0D9FC6B
:101AF000C22000F0DDFC012000F0D3FCC32000F088
:101B0000D7FC0B2000F0CDFCC42000F0D1FC20203D
:101B100000F0C7FCC62000F0CBFC0F2000F0C1FC99
:101B2000D02000F0C5FCA72000F0BBFCA12000F0F5
:101B3000B8FCD02000F0BCFCA42000F0B2FCA12036
:101B400000F0AFFCD62000F0B3FCA12000F0A9FC0F
:101B5000E02000F0ADFCD02000F0A3FC042000F059
:101B6000A0FC082000F09DFC0A2000F09AFC09204F
:101B700000F097FC052000F094FC2D2000F091FC73
:101B8000432000F08EFC492000F08BFC092000F07F
:101B900088FC162000F085FC152000F082FC262031
:101BA00000F07FFC2B2000F07CFCE12000F080FCAA
:101BB000D02000F076FC032000F073FC092000F038
:101BC00070FC0A2000F06DFC0A2000F06AFC062080
:101BD00000F067FC2E2000F064FC442000F061FC63
:101BE000402000F05EFC3A2000F05BFC152000F085
:101BF00058FC152000F055FC262000F052FC2A204D
:101C000000F04FFC212000F053FC292000F050FC94
:101C10000A2002F025FC10BD001402400010024012
:101C20002DE9FF5F80468A4617469B460F9D0020A0
:101C30000290CDF80080284605EBD071C1F347042F
:101C40002046E21704EB5272D2102146E31704EB50
:101C50005373DB10A4EBC3030BB1012300E000239B
:101C60001A446A4392B20192A7F12000C7B20AEB6C
:101C70000500401E83B208EB0400401E82B25146AC
:101C80004046FFF78FFE002669E00C2D07D107EBD9
:101C90004700354901EB8000805D03901BE0102D6B
:101CA00005D1324800EB0710805D039013E0182D3A
:101CB00007D107EB47002E4901EB0010805D039030
:101CC00009E0202D05D12B4800EB8710805D0390A3
:101CD00001E0BDE8FF9F4FF000093AE01098C8B955
:101CE000012000FA09F00399084018B1584600F0A5
:101CF000CFFB02E00E9800F0CBFB0298401CC0B274
:101D00000290029890FBF4F104FB1100E8B9002066
:101D1000029021E0012000FA09F00399084020B167
:101D20005A4651464046FFF75AFE08F101001FFA95
:101D300080F80098A8EB0000A04206D1DDF80080F2
:101D40000AF101001FFA80FA06E009F1010000F033
:101D5000FF09B9F1080FC1DB00BF701C86B2019802
:101D6000864292DB00BFB4E7548D000838020020A1
:101D7000608D0008280800202DE9FE4F8046894626
:101D800017469A46DDE90D460C9D36E00C2C09D12C
:101D900053463A4649464046CDE90146009500F093
:101DA00031F825E0102C09D153463A4649464046C1
:101DB000CDE90146009500F0C9F819E0182C09D1C9
:101DC00053463A4649464046CDE90146009500F063
:101DD00059F90DE0202C09D153463A464946404670
:101DE000CDE90146009500F0F1F901E0BDE8FE8F74
:101DF000BF1C08EB04001FFA80F838780028C5D112
:101E000000BFF3E72DE9FF5F0646894692469B46F1
:101E10000F9C0020039000962046E21704EB5272BC
:101E2000D2102146E31704EB5373DB10A4EBC3037A
:101E30000BB1012300E000231A44624392B20192E5
:101E400001200290002579E005EB850000EBC5003C
:101E50003D4911F810009AF8001088426BD105EB4B
:101E6000850000EBC500384901EB400040789AF846
:101E7000011088425FD109EB0400401E83B2301983
:101E8000401E82B249463046FFF78CFD00274FE0E6
:101E90004FF0000846E0109808BB05EB850000EB0A
:101EA000C500294901EB4000801CC05D012101FAF9
:101EB00008F1084018B1584600F0EAFA02E00E981E
:101EC00000F0E6FA0398401CC0B20390039890FB20
:101ED000F4F104FB110008BB0020039025E005EBA2
:101EE000850000EBC500184901EB4000801CC05D77
:101EF000012101FA08F1084020B15A46494630460E
:101F0000FFF76DFD701C86B20098301AA04205D113
:101F1000009E09F101001FFA80F906E008F10100B6
:101F200000F0FF08B8F1080FB5DB00BF781CC7B29E
:101F300001988742ACDB00BF681C85B202988542DD
:101F400082DBBDE8FF9F0000309F00082DE9FF5FA6
:101F50000646894692469B460F9C002003900096B9
:101F60002046E21704EB5272D2102146E31704EB2D
:101F70005373DB10A4EBC3030BB1012300E0002378
:101F80001A44624392B2019265200290002571E0EA
:101F900005EB05103A4911F810009AF80010884234
:101FA00065D105EB0510364901EB400040789AF801
:101FB000011088425BD109EB0400401E83B2301946
:101FC000401E82B249463046FFF7ECFC00274BE04A
:101FD0004FF0000842E01098F8B905EB05102849C9
:101FE00001EB4000801CC05D012101FA08F10840AE
:101FF00018B1584600F04CFA02E00E9800F048FA8A
:102000000398401CC0B20390039890FBF4F104FBCA
:102010001100F8B90020039023E005EB05101849E2
:1020200001EB4000801CC05D012101FA08F108406D
:1020300020B15A4649463046FFF7D1FC701C86B2A3
:102040000098301AA04205D1009E09F101001FFA44
:1020500080F906E008F1010000F0FF08B8F1080F70
:10206000B9DB00BF781CC7B201988742B0DB00BF64
:10207000681C85B2029885428ADBBDE8FF9F00009C
:102080004A9F00082DE9FF5F0646894692469B4617
:102090000F9C0020039000962046E21704EB52723A
:1020A000D2102146E31704EB5373DB10A4EBC303F8
:1020B0000BB1012300E000231A44624392B2019263
:1020C00051200290002579E005EB850000EB4510DA
:1020D0003D4911F810009AF8001088426BD105EBC9
:1020E000850000EB4510384901EB400040789AF834
:1020F000011088425FD109EB0400401E83B2301901
:10210000401E82B249463046FFF74CFC00274FE0A4
:102110004FF0000846E0109808BB05EB850000EB87
:102120004510294901EB4000801CC05D012101FAE6
:1021300008F1084018B1584600F0AAF902E00E98DC
:1021400000F0A6F90398401CC0B20390039890FBDE
:10215000F4F104FB110008BB0020039025E005EB1F
:10216000850000EB4510184901EB4000801CC05D64
:10217000012101FA08F1084020B15A46494630468B
:10218000FFF72DFC701C86B20098301AA04205D1D2
:10219000009E09F101001FFA80F906E008F1010034
:1021A00000F0FF08B8F1080FB5DB00BF781CC7B21C
:1021B00001988742ACDB00BF681C85B2029885425B
:1021C00082DBBDE8FF9F0000B4AC00082DE9FF5F93
:1021D0000646894692469B460F9C00200390009637
:1021E0002046E21704EB5272D2102146E31704EBAB
:1021F0005373DB10A4EBC3030BB1012300E00023F6
:102200001A44624392B2019204200290002571E0C8
:1022100005EB85103A4911F810009AF80010884231
:1022200065D105EB8510364901EB400040789AF8FE
:10223000011088425BD109EB0400401E83B23019C3
:10224000401E82B249463046FFF7ACFB00274BE008
:102250004FF0000842E01098F8B905EB85102849C6
:1022600001EB4000801CC05D012101FA08F108402B
:1022700018B1584600F00CF902E00E9800F008F989
:102280000398401CC0B20390039890FBF4F104FB48
:102290001100F8B90020039023E005EB85101849E0
:1022A00001EB4000801CC05D012101FA08F10840EB
:1022B00020B15A4649463046FFF791FB701C86B262
:1022C0000098301AA04205D1009E09F101001FFAC2
:1022D00080F906E008F1010000F0FF08B8F1080FEE
:1022E000B9DB00BF781CC7B201988742B0DB00BFE2
:1022F000681C85B2029885428ADBBDE8FF9F00001A
:102300001EC400082DE9FF4F2DED020B2DED028BB1
:1023100083B00746B0EE408A1446DDE914863046A5
:1023200006EBD071C1F3470A9FED220A28EE000A9E
:10233000BCEEC00A10EE100A1FFA80FB002530E048
:10234000601B401EC1B20A2003F0B1F8BBFBF0F0E5
:102350000A21B0FBF1F201FB1209A01EA84210D124
:102360000020A11E01FB0A71CDE90086029088B20F
:102370002E220A9B0899FFF753FC681CC5B2601C0B
:10238000C4B2002009F13001CAB205FB0A71CDE9DF
:102390000086029088B20A9B0899FFF741FC681CEE
:1023A000C5B2A542CCDB03B0BDEC028B06B0BDE8E4
:1023B000F08F00000000C8422DE9FF4F85B00746AE
:1023C00091461D46DDE913A600200490304606EB39
:1023D000D071C1F3470B002434E0281B401EC1B26A
:1023E0000A2003F064F8B9FBF0F00A21B0FBF1F227
:1023F00001FB12080498A0B9681EA04211DDB8F1D3
:10240000000F0CD1002004FB0B71CDE900A6029057
:1024100088B22022129B0699FFF702FC10E00120EF
:102420000490002008F13001CAB204FB0B71CDE921
:1024300000A6029088B2129B0699FFF7F1FB00BF3D
:10244000601CC4B2AC42C8DB09B0BDE8F08F2DE916
:10245000FE4F06460F4614469846DDE90D5ADDF854
:10246000309010E0CDE9015ACDF800902278434633
:1024700039463046FFF7D4FB284605EBD07106EB12
:1024800061018EB2641C20780028EBD1BDE8FE8F7C
:1024900010B50446201200F01DF8E0B200F01AF862
:1024A00010BD10B50446204600F014F810BD000021
:1024B00010B504464FF400410548FFF79FF8204649
:1024C00000F008F84FF400410148FFF799F810BDFB
:1024D0000014024070B5044680211448FFF78EF8BE
:1024E00000251BE04FF480411148FFF787F804F006
:1024F000800028B14FF480710C48FFF781F804E0A8
:102500004FF480710948FFF779F84FF4804108488B
:10251000FFF776F86006040E681CC5B2082DE1DBF3
:1025200080210248FFF76CF870BD000000100240E7
:10253000001402401CB50121202000F0D5F94FF411
:10254000C060009001208DF8040000208DF8060086
:102550008DF807008DF8050069460548FEF7DAFF9B
:102560000120044908600449C1F8A8021CBD00000C
:1025700000140240A4824242008042423EB541F62D
:10258000FF740121080700F0CFF9012000F082F963
:10259000002000F0F1FB45F25001884225D00120D7
:1025A00000F076FA04E0601C84B20A2004F063FCB8
:1025B000412000F04DFA0028F5D00CB901203EBDB5
:1025C0004FF4807000F080FA012000F077FA7F204D
:1025D0000190FF20029000200090684600F09AFBD6
:1025E00045F25001002000F0E7FB0020E7E708B5C6
:1025F0004FF4A06000F04AF825208DF8000001207B
:102600008DF801008DF802008DF80300684600F097
:1026100001F808BD70B5002100230F22C4781CB357
:10262000174C246804F4E064C4F5E064C4F30721A3
:10263000C1F10404E3B20A4144789C40E1B28478D9
:10264000144021430C07210E0E4C05786155047887
:1026500004F01F050124AC4005786D11AD0005F1B3
:10266000E025C5F8004109E0047804F01F050124C5
:10267000AC40054D0678761145F8264070BD000047
:102680000CED00E000E400E080E100E002490143DD
:10269000024A1160704700000000FA050CED00E0EE
:1026A00080ED000AC0ED010A80ED021AC0ED031AA8
:1026B0009FED022A80ED042A704700000000000010
:1026C00000B50246B1F5167F0FDA080100EE100AD8
:1026D000B8EEC00AF0EE401A9FED2F1ADFED2F0A78
:1026E0009FED2F0A1046FFF7DBFFB1F5167F12DBD7
:1026F000B1F57A7F0FDA080100EE100AB8EEC00AD1
:10270000F0EE401A9FED271ADFED270A9FED240A0D
:102710001046FFF7C5FFB1F57A7F12DBB1F5AF6F59
:102720000FDA080100EE100AB8EEC00AF0EE401A07
:102730009FED1E1ADFED1E0A9FED190A1046FFF7E6
:10274000AFFFB1F5AF6F12DBB1F5E16F0FDA080142
:1027500000EE100AB8EEC00AF0EE401A9FED151A0E
:10276000DFED150A9FED0E0A1046FFF799FFB1F550
:10277000E16F0FDB080100EE100AB8EEC00AF0EEC0
:10278000401A9FED0D1ADFED0C0A9FED050A104669
:10279000FFF786FF00BD0000EC51383EEC51383D9C
:1027A000CDCC4C3E0AD7A33D0AD7233DCDCC4C3DE2
:1027B000CDCCCC3C8FC2F53C0AD7A33C00B5024639
:1027C00040F24C4081420FDA080100EE100AB8EEE8
:1027D000C00AF0EE401A9FED0F1ADFED0F0A9FEDD1
:1027E0000F0A1046FFF75CFF40F24C4081420FDBBE
:1027F000080100EE100AB8EEC00AF0EE401A9FED94
:10280000081ADFED080A9FED050A1046FFF748FF9A
:1028100000BD0000CDCCCC3D0AD7A33CCDCC4C3E76
:102820000AD7A33D508D973C00B5024640F24C407C
:1028300081420FDA080100EE100AB8EEC00AF0EE8D
:10284000401A9FED0F1ADFED0F0A9FED0F0A104699
:10285000FFF726FF40F24C4081420FDB080100EEFB
:10286000100AB8EEC00AF0EE401A9FED081ADFED2C
:10287000080A9FED050A1046FFF712FF00BD000091
:10288000CDCCCC3D0AD7A33CCDCC4C3E0AD7A33D02
:10289000508D973C014908627047000000000E42CD
:1028A0000349096841EA8001014A1160704700004C
:1028B000007000400748006840F0020005490860C9
:1028C0000548006840F004000349086000BF00BFED
:1028D00030BF70470070004010ED00E00149086013
:1028E00070470000A0000E4229B1064A1268024358
:1028F000044B1A6004E0034A12688243014B1A60D9
:10290000704700003038024029B1064A126802437D
:10291000044B1A6004E0034A12688243014B1A60B8
:10292000704700001038024029B1064A126802437D
:10293000044B1A6004E0034A12688243014B1A6098
:10294000704700004038024029B1064A126802432D
:10295000044B1A6004E0034A12688243014B1A6078
:102960007047000044380240F0B5002100220024E6
:10297000022500260223324F3F6807F00C0121B1E7
:10298000042905D0082937D105E02E4F076036E02D
:102990002D4F076033E02A4F3F1F3F68C7F3805633
:1029A000274F3F1F3F6807F03F036EB1264FB7FB2D
:1029B000F3F7DFF88CC0ACF1040CDCF800C0CCF30A
:1029C000881C07FB0CF40CE01E4FB7FBF3F7DFF895
:1029D00070C0ACF1040CDCF800C0CCF3881C07FB21
:1029E0000CF4174F3F1F3F68C7F301477F1C7D0062
:1029F000B4FBF5F7076002E0124F076000BF00BFAD
:102A00000F4F3F6807F0F0010909104F7A5C076823
:102A1000D74047600A4F3F6807F4E051890A0B4FDF
:102A20007A5C4768D7408760054F3F6807F460418C
:102A3000490B064F7A5C4768D740C760F0BD00007D
:102A4000083802400024F40000127A00140000202C
:102A500010B501460022002300204A11012A02D1AC
:102A60000A4C236808E0022A03D1084C703423681A
:102A700002E0064C7434236801F01F0201249440E4
:102A80001C400CB1012000E0002010BD00380240C5
:102A90000021094A11701170012802D0042808D1C0
:102AA00003E00121044A117004E00521024A11707B
:102AB00000E000BF00BF7047703802400149086065
:102AC000704700003C0E4742002100F44072B2F50E
:102AD000407F08D1094A116821F4F811084A0240E0
:102AE0001143064A1160054A68321268C0F30B03AD
:102AF0001A43024B68331A607047000008380240DE
:102B0000FFFCFF0F10B54FF4807000F095F801281E
:102B100005D1000200F01AF803A000F0F1FD4FF417
:102B20000030FEF79DFA10BD414C41524D2041212D
:102B30000D0A0000014600BF080900EB80004200BA
:102B400001F00F001044C0B27047000081B241F0A4
:102B50008001044A126802F0800262EA0101014A1F
:102B6000116070470C280040002101098AB242F030
:102B70008002044B1B6803F0800363EA0202014BEE
:102B80001A6070470C28004008B50022009200200F
:102B90000021104A126802F04002CAB9421E0D4BD1
:102BA0001A6000BF0B4A126802F04001009A521CE2
:102BB0000092009AB2F5803F01D00029F2D0054A78
:102BC000126802F040020AB1012002E0002000E099
:102BD000012008BD0C2800400348006820F0800058
:102BE00001490860704700000C28004070B5064697
:102BF0000C4600250E4800680E4900EA0105280C25
:102C0000E070C5F30420607005F03F00A070C5F3CC
:102C1000423020705EB9E078FFF78CFFE07060789A
:102C2000FFF788FF6070A078FFF784FFA07070BD89
:102C3000042800403FFFFF0010B50146002000229D
:102C4000054B1B68054C03EA040202EA01030BB1C1
:102C5000012000E0002010BD0C2800407F7F010013
:102C600070B506460C4600250F4800680F4900EA7B
:102C70000105C5F305402070C5F30620607005F01E
:102C80007F00A07005F48000000CE0705EB9207831
:102C9000FFF750FF20706078FFF74CFF6070A0785E
:102CA000FFF748FFA07070BD002800407F7F7F00C5
:102CB000CA22174B1A6053221A6091B1144A1C3A67
:102CC000126820F004031A43114B1C3B1A60104A8F
:102CD0001C32126800F004031A430D4B1C331A60B7
:102CE00011E00B4A1C3A126820F004039A43084B87
:102CF0001C3B1A60064A1C32126800F004039A4317
:102D0000034B1C331A60FF22014B1A60704700000E
:102D10002428004030B504460025CA201549086023
:102D200053200860FFF730FF00B91DE011481C3840
:102D3000006820F040000F491C3908600846006810
:102D4000216808430B491C3908600A491439A068F6
:102D5000086008460068A18840EA01400549143926
:102D60000860FFF739FF0125FF2002490860284667
:102D700030BD00002428004008B501460020009026
:102D800004480090009800EB8100009000980068D3
:102D900008BD00005028004010B54FF48060FFF7D8
:102DA0004BFF012802D18002FFF7D0FE4FF48000D4
:102DB000FEF756F910BD000008B500220092044A43
:102DC0000092009A02EB80020092009A116008BD06
:102DD0005028004070B50446A28991B26068FEF7A1
:102DE00004FC0546284670BD10B50446014801693B
:102DF000884710BDA80100202DE9F04180460D460E
:102E00001646002400272048416988471E484A2169
:102E1000826A90471C48C169884729121A48826A09
:102E200090471948C1698847E9B21748826A9047B4
:102E30001548C16988471448816988470A2004F009
:102E40001AF81148416988470F484B21826A904718
:102E50000D48C169884700BF0CE0082C01DA012742
:102E600000E0002708483946C26A904740B2305512
:102E7000601CC4B2092CF0DB0348816988470A2032
:102E800003F0F9FFBDE8F081A801002070B5054608
:102E90000C460E48416988470C484A21826A90478F
:102EA0000A48C169884721120848826A9047074842
:102EB000C1698847E1B20548826A90470348816941
:102EC00088470A2003F0D7FF70BD0000A80100204A
:102ED00010B502480169884710BD000008020020B3
:102EE0000CB50020019000903448006840F4803018
:102EF0003249086000BF3148006800F4003000909B
:102F00000198401C0190009818B90198B0F5A04FA5
:102F1000F1D12A48006800F4003010B1012000907F
:102F200001E0002000900098012846D1234840305D
:102F3000006840F080502149403108602048006816
:102F400040F440401E4908601C48083000681B4996
:102F5000083108600846006840F4004008600846F0
:102F6000006840F4A05008601648091F0860081F58
:102F7000006840F08070091F086000BF0F480068BB
:102F800000F000700028F9D040F205700E4908608A
:102F90000A480830006820F003000849083108603A
:102FA0000846006840F00200086000BF034808308F
:102FB000006800F00C000828F8D10CBD0038024071
:102FC0000070004008544007003C024010B5012149
:102FD00040F2FF40FFF798FC01210807FFF7A4FC2F
:102FE0000120FFF757FC00214FF47040FFF760FE0F
:102FF0004FF47040FFF7B8FD0120FFF751FC0120AE
:10300000FFF76CFCFFF756FC10BD10B502F0BCFFDB
:1030100004F0A6F802F0CEFF10BD000010B5154870
:10302000006840F47000134908601348006840F0DD
:1030300001001149086000200F49083108600E485E
:1030400000680E4908400C4908600D48091D0860D9
:10305000081F006820F48020091F0860002006492E
:103060000C310860FFF73CFF4FF0006001498039E8
:10307000086010BD88ED00E000380240FFFFF6FE5A
:103080001030002410B50121064800F07BF820B173
:1030900005480088401C044908800121014800F0CF
:1030A00054F810BD00100040A80E002030B58BB0C1
:1030B00005460C4601210420FFF716FC01210220E1
:1030C000FFF732FC022207211C48FEF76BFA802032
:1030D000099002208DF8280003208DF82900002097
:1030E0008DF82A008DF82B0009A91448FEF712FA72
:1030F0000795ADF818400020ADF82000ADF81A0093
:1031000006A90F4800F002F96020ADF80400012084
:10311000ADF806004FF4076003900020ADF81000F2
:1031200001A9074800F090F80821054800F0DEF8F2
:103130000121034800F00CF80BB030BD0000024044
:1031400000040040CA4302827047CA4302827047AB
:1031500021B1028842F00102028004E002884FF6A9
:10316000FE731A400280704730B50C460021018979
:10317000C9B24FF6FF7505EA0325154325432943D8
:10318000018130BD30B50246002000230024158A9D
:1031900005EA0103958905EA010413B10CB1012088
:1031A00000E0002030BD1AB183890B43838102E027
:1031B00083898B438381704770B5002400220023EC
:1031C000058C4FF6FE7635400584028C8388048B8F
:1031D0004FF68F752C40B51E2C400D882C43751E64
:1031E0002A408D892A434D882A43104DA84202D097
:1031F0000F4DA84213D14FF6F7752A40CD892A43C7
:103200004FF6FB752A408D882A434FF6FF652B4009
:103210004FF6FF552B400D8A2B434D8A2B4383805D
:1032200004838D684563028470BD00000000014086
:10323000000401400A460021018B4FF6F773194044
:10324000114301837047000070B500240022002361
:10325000058C4FF6EF7635400584028C8388048B0D
:1032600048F6FF752C404FF6FF452C400D884FF671
:10327000FF7606EA05252C434FF6DF752A408D8937
:1032800006EA05152A434D8806EA05152A43154D19
:10329000A84202D0144DA8421DD14FF67F752A4096
:1032A000CD894FF6FF7606EA05152A434FF6BF751E
:1032B0002A408D8806EA05152A434FF6FF352B4034
:1032C0004FF2FF752B400D8A06EA85052B434D8A88
:1032D00006EA85052B43838004838D688563028419
:1032E00070BD000000000140000401400A460021BA
:1032F000018B4FF2FF7319404FF6FF7303EA02236D
:10330000194301837047416370470000002202881F
:10331000184B98420ED0184B98420BD0B0F1804F0A
:1033200008D0164B984205D0154B984202D0154B49
:10333000984204D14FF68F731A404B881A43124BB0
:10334000984207D0114B984204D04FF6FF431A40E1
:103350000B891A4302804B68C3620B880385054BB7
:10336000984202D0044B984201D18B7A0386012304
:1033700083827047000001400004014000040040C7
:1033800000080040000C0040001000400014004005
:1033900021B1828942F40052828104E082894DF693
:1033A000FF731A408281704702460020B1F5007F0A
:1033B00000D100BF13880B400BB1012000E00020BA
:1033C0007047F0B50346002400260025002040F693
:1033D0006A17B94200D100BF1846C1F3421401F088
:1033E0001F06012707FA06F5012C01D10C3004E075
:1033F000022C01D1103000E014301AB107682F43BD
:10340000076002E00768AF430760F0BD2DE9FF47A2
:1034100005460E460024A14600BFA046B08900B173
:1034200000BF2C8A24F44054F08804432C82AC89D9
:1034300041F20C608443B0883189084371890843A4
:103440000443AC81AC8A24F44074B0890443AC8258
:103450006846FFF789FA2048854202D01F48854216
:1034600002D1DDF80C9001E0DDF80890A88900F4A5
:10347000004040B109EBC90000EB09103168490078
:10348000B0FBF1F707E009EBC90000EB0910316868
:103490008900B0FBF1F76420B7FBF0F004012009CC
:1034A000642101FB1078A88900F4004040B132206B
:1034B00000EBC800B0FBF1F000F00700044308E0A7
:1034C000322000EB08106421B0FBF1F000F00F0097
:1034D00004432C81BDE8FF87001001400014014027
:1034E000C1F308028280704770B504460D46294634
:1034F0002046FFF7F5FF00BF80212046FFF754FF6D
:103500000028F9D070BD70B506460C46002500BFF6
:10351000615D3046FFF7E8FF6D1C605D0028F7D164
:1035200000BF40213046FFF73FFF0028F9D070BDB3
:10353000B0EE401AD0ED031A71EEC11AF0EE610A36
:10354000F5EEC00AF1EE10FA05D2F0EE001A60EEC8
:10355000A11AF0EE610AD0ED051A71EEA01AC0EDC5
:10356000051AD0ED011AF5EEC01AF1EE10FA14D0DA
:1035700090ED012ADFED2C2AC2EE821A90ED052A89
:10358000F4EEC21AF1EE10FA07D2D0ED011A9FED57
:10359000262AC2EE212AC0ED052AD0ED011AF5EE49
:1035A000C01AF1EE10FA14D0D0ED011ADFED1F2A87
:1035B00082EEA12AD0ED051AB4EEE12AF1EE10FA5E
:1035C00007DDD0ED011A9FED192AC2EE212AC0EDC8
:1035D000052AD0ED011A90ED052A61EE821A90EDD0
:1035E000002A42EE201A90ED022AD0ED042A70EE55
:1035F000E22AB0EE610A02EE220AC0ED040AB5EE3C
:10360000C00AF1EE10FA03D2DFED081AB0EE610A3B
:10361000DFED051AB4EEE10AF1EE10FA03DDDFED9D
:10362000021AB0EE610A704700401C46000000001C
:1036300010B5002401480169884710BDD801002059
:103640002DE9F04105460E4614461B48416988475E
:103650001948DA21826A90471748C1698847164895
:103660002946826A90471448C1698847082003F0B8
:1036700002FC1148416988470F48DB21826A904764
:103680000D48C1698847002707E00B480121C26A3D
:1036900090472070641C781CC7B2701EB842F4DCDE
:1036A00005480021C26A9047207003488169884715
:1036B0000020BDE8F0810000D801002070B504466C
:1036C0000D460E48416988470C48DA21826A9047C6
:1036D0000A48C169884709482146826A90470748D5
:1036E000C169884705482946826A9047034881692D
:1036F0008847082003F0BFFB70BD0000D801002000
:103700000FB4054B10B503A9044A029800F034F930
:1037100010BC5DF814FB000095450008780F0020F0
:103720000FB4084B10B504A902AA039800F024F9BD
:10373000044602A9002000F0FCFD204610BC5DF804
:1037400014FB0000334300087CB5044600201D46EE
:10375000164600290BD0491ECDE90041044B6A46AC
:103760002946304600F008F9009A002111707CBD0E
:103770001D430008014609B900207047C8B220B1B6
:10378000C8B20E4A105C401CF7E701F47F4028B134
:103790000A48C1F30722805C0930EEE701F47F009C
:1037A00028B10648C1F30742805C1130E5E70348C1
:1037B00000EB116000781930DFE70000EE750108BA
:1037C00002E008C8121F08C1002AFAD170477047EA
:1037D000002001E001C1121F002AFBD17047000048
:1037E0002DE9FF5F82B00021DDE90430020DDDF834
:1037F00040B0034318D044F61050A2F2FF324243C7
:103800001514119801281FD0A5EB0B00401C5FEA8E
:10381000000A4FF000064E4FDFF83891B046504690
:1038200015D5CAF1000413E0119801244AA3012818
:1038300001D16FEA0B010298119AC0E90031C0E989
:10384000024206B0BDE8F09FCBF10000DFE704467E
:103850000021404A491842EB0450CDE9001012E023
:10386000E00707D032463B4640464946FCF7E9FDB3
:103870008046894632463B4610461946FCF7E1FD34
:1038800006460F466410002CEAD1DDE90401DDE9AB
:103890000023BAF1000F06DAFCF7D3FD42464B468F
:1038A000FCF7CFFD05E0FCF73EFE42464B46FCF739
:1038B0003AFE04460E460022284BFCF7E5FF03D8EB
:1038C0004FF0FF30014607E00022254B20463146ED
:1038D000FCF710FDFCF7BFFF102409E0002C0ADB09
:1038E0000A220023FCF7D1FE039B30321A55641ED6
:1038F00050EA0102F2D1641C039AC4F1110314448A
:10390000119A012A03D0012208430DD10AE008438D
:1039100004D000204FF0110B119072E7A3EB0B05C0
:103920006D1E0DE05B4504DD4FF0000205F1010561
:1039300004E003DA4FF00002A5F10105002AECD003
:1039400002981199C0E90231C0E9004579E7000009
:10395000000014400000F03F300000000000F04381
:103960000000E03F03490868884201D00120704709
:103970000020FCE7540F00202DE9FF4F95B09B4637
:103980008946064600250FE2252877D100242746E0
:10399000F84A0121059400E0044316F8013F203B5A
:1039A00001FA03F01042F7D130782A2811D06FF0D5
:1039B0002F033078A0F13002092A16D8059A44F076
:1039C000020402EB820203EB42021044761C0590D3
:1039D000EFE759F8042B0592002A03DA504244F429
:1039E0000054059044F00204761C30782E2816D13D
:1039F00016F8010F44F004042A280DD06FF02F02AE
:103A00003078A0F13003092B09D807EB870302EBCC
:103A10004303C718761CF3E759F8047B761C30780B
:103A20006C280FD006DC4C2817D068280DD06A28E7
:103A300014D104E0742810D07A280FD10DE044F49A
:103A400000140AE044F4801401E044F44014727855
:103A5000824202D104F58014761C761C30786628E8
:103A60000BD013DC582877D009DC002875D0452806
:103A7000F6D04628F4D047281AD19DE118E06328F3
:103A800035D0642879D0652812D195E1702873D09B
:103A900008DC6728F1D069286FD06E280DD06F2818
:103AA00006D1B5E073282CD0752875D0782874D04D
:103AB0005A46179990476D1C75E1C4F302500228CD
:103AC00009D003280DD0D9F8001004280DD00D60BE
:103AD00009F1040967E1D9F80010EA17C1E90052B9
:103AE000F6E7D9F800100D80F2E70D70F0E719F84D
:103AF000041B8DF8001000208DF80100EA4601201B
:103B000003E059F804AB4FF0FF3061074FF00001BC
:103B100002D40DE008F101018846B9420FDA804570
:103B2000F8DB1AF808100029F4D108E008F10101C7
:103B300088468142FADB1AF808100029F6D1059868
:103B40005B46A0EB080721463846179A00F094FA26
:103B5000284400EB080507E04DE029E10DE01AF8E4
:103B6000010B5A4617999047B8F10108F7D25B4606
:103B700021463846179A13E142E00A220092C4F324
:103B800002524FF0000A022A08D059F804CB032A47
:103B90004FEAEC710AD00DE029E02AE009F10701B3
:103BA00021F00702F2E802C1914609E00FFA8CFC0D
:103BB0004FEAEC71042A03D14FFA8CFC4FEAEC7106
:103BC000002907DA0A460021DCF1000C61EB020152
:103BD0002D2202E0220504D52B228DF8042001229B
:103BE00003E0E20701D02022F7E7904659E00A21DE
:103BF00002E010220DE010214FF0000A00910BE0CE
:103C000010224FF0000A44F004040827009203E059
:103C100008224FF0000A0092C4F30252022A05D093
:103C200059F804CB0021032A08D009E009F1070163
:103C300021F00702F2E802C1914605E01FFA8CFC70
:103C4000042A01D10CF0FF0C4FF00008220728D500
:103C5000702806D0009B83F0100353EA0A0305D0B6
:103C60000EE040228DF80420012208E05CEA010207
:103C700006D030228DF804208DF8050002229046EF
:103C8000009B83F0080353EA0A030AD15CEA0102AD
:103C900001D1620705D530228DF804204FF00108CC
:103CA0007F1E582804D034A003900EA802900DE087
:103CB00036A0F9E753466046009AFCF7E6FC8446D6
:103CC0000398825C0298401E029002705CEA010038
:103CD000F0D1029806A9081A00F1200A600702D55F
:103CE00024F4803400E00127574502DDA7EB0A00E9
:103CF00000E0002000EB0A01009005984144401AC2
:103D00000590E00306D45B462146179A059800F01B
:103D1000B3F90544002706E001A85A46C05D17998B
:103D200090476D1C7F1C4745F6DBE0030CD55B46D6
:103D30002146179A059800F09FF9054404E03020C9
:103D40005A46179990476D1C0099481E009000290B
:103D5000F5DC08E0029802995A460078491C029165
:103D6000179990476D1CBAF10001AAF1010AF1DC24
:103D700065E100000928010030313233343536372F
:103D800038396162636465660000000030313233A7
:103D90003435363738394142434445460000000047
:103DA00000F058F90544761C307800287FF4ECAD1B
:103DB00019B02846BDE8F08F620700D4062709F144
:103DC000070222F0070CFCE80223E14603F000485A
:103DD0005FEA080C02D00FF2702C0DE05FEA045C81
:103DE00002D50FF2682C07E05FEAC47C02D00FF224
:103DF000602C01E0AFF2700C4FF0FF3823F000436D
:103E0000CDF850C065280CD006DC452809D04628DE
:103E10001DD047283DD13DE0662818D067287ED1C7
:103E200038E00021112F01DB112000E0781CCDE9E2
:103E3000000106A90EA8FFF7D3FCDDE90F010E9AD9
:103E400003910021009207F1010A04914DE04FF027
:103E500000400097CDE9011006A90EA8FFF7C0FCAD
:103E6000DDE90F0203920E9B11990022DDF80CA0F0
:103E70000093049211B9791C00EB010AB7EB0A0018
:103E800004D4C0F1FF3007F1010A0490AAEB070047
:103E9000019044E0012F00DA01270021112F01DDFC
:103EA000112000E03846CDE9000106A90EA8FFF771
:103EB00097FCDDE90F010E9A039100210491009215
:103EC000BA4621070CD40399514500DA8A46BAF163
:103ED000010F05DD009AAAF10101515C302908D0DB
:103EE000B84202DA10F1040F06DA0121CDE901101F
:103EF00015E0AAF10101E9E7002805DC0499014475
:103F00000491AAEB000102E0411C514500DD8A4604
:103F10000499401A401C01904FF000400290200785
:103F200004D40198504501DBCDF8048000208DF8C1
:103F30004F0002980DF14F07B0F1004F25D02B2014
:103F40000E9002984FF0020800280CDA40420290CE
:103F50002D200E9007E00A210298FCF780FB3031FB
:103F6000029007F8011DB8F10001A8F10108F2DC88
:103F700002980028EFD1791E0E980870307800F072
:103F8000200040F0450007F8020D12A8C01B00F108
:103F900007081498007800B1012000EB0A0101988D
:103FA00001EBE07105984144401A401E0590E00382
:103FB00006D45B462146179A059800F05DF8054443
:103FC0001498007818B15A46179990476D1CE00371
:103FD00024D55B462146179A059800F04DF8054414
:103FE0001CE00498002807DBDDE90301884203DDBB
:103FF0000098405C179901E0179930205A46904785
:10400000049805F10105401C04900198401E0190A0
:1040100004D12E205A46179990476D1CBAF1000121
:10402000AAF1010ADDDC05E017F8010B5A461799E1
:1040300090476D1CB8F10001A8F10108F4DC5B4663
:104040002146179A0598ABE62D0000002B000000D2
:10405000200000002DE9F041044600251E461746C9
:10406000880404D405E039462020B0476D1C641E46
:10407000F9D52846BDE8F0812DE9F0410446002538
:104080001E469046C80301D5302700E0202788044B
:1040900004D505E041463846B0476D1C641EF9D58D
:1040A0002846BDE8F08100002DE9FC5F04468B4600
:1040B00015461E46DDE90C9ADDE90E7804F1140080
:1040C0004060006000BF1C346560A660C4F80C90BE
:1040D000C4F810A02321D4E9030202F033F9D4E993
:1040E000033C63441A1F0F4BD4E9010101F024FF84
:1040F0002060A77667760020E061C4F82880C4F8C5
:104100002C8060612076E06520661C3C0090234690
:10411000054A2146019004F14C0003F0BEF800204E
:10412000BDE8FC9F856E0008D17000082DE9F047BE
:1041300004460E4617469846DDF8209084F809900C
:10414000607A20F001006072E66127620020A062C0
:10415000C4F82480002506E004F1140101EBC50039
:1041600001F0BAFF6D1C012DF6DBBDE8F08710B53C
:104170000246002001460EE002F1140303EBC100E9
:10418000D0E900436360D0E9003423604060006000
:1041900000BF481C01460129EEDB10BD2DE9F047A8
:1041A000044688461746FCF70BF88246A06CC0F31D
:1041B0008F20E8B90025E66C306801280AD001207C
:1041C0003060206C01233A464146D0F810C02046AA
:1041D000E04701E06FF006055046FBF7F5FF15B923
:1041E0003846BDE8F087284602F0A0FC0020F8E73A
:1041F000E56C0026204601F08AFB81464F4501D23E
:104200003E4600E04E46E8888119A06CC0F38F203E
:10421000814207D2EA88286881183246404602F077
:1042200053F81CE0A06CC0F38F20EB88C21A2868FA
:10423000C118404602F048F8EB8803EB060CA36C6B
:10424000C3F38F23ACEB0302A36CC3F38F2343446C
:10425000B5F806C0A3EB0C00296802F035F831462A
:10426000204601F05AFB5046FBF7AEFF3046B8E758
:104270000246D16C8888CB88984207D1886808B9F3
:1042800000207047906CC0F38F20FAE78888CB88B5
:10429000984203DD8888CB88C01AF2E7C8888B88EB
:1042A000C31A906CC0F38F20C01AEAE72DE9F047DB
:1042B00006460F461546A946F46C28E0FBF780FF3A
:1042C0008246E088A188884205D1A06818B9504686
:1042D000FBF77AFF1DE0E188206810F80180E08894
:1042E000401CE080E188B06CC0F38F20814201DB8C
:1042F0000020E080A068012801D10020A060504685
:10430000FBF762FF87F800807F1C6D1E00BF002D49
:10431000D4D100BFA9EB0500BDE8F0874A68002AA8
:1043200006D00A68531C0B6010704868401E486035
:1043300070470A68531C0B60107070471FB501214D
:104340001020FEF7F1FA42F2CF00ADF8040042F27D
:104350000F70029001A91048FEF7D8FF01210E4806
:10436000FEF7F0FE012211460B48FEF71CFF00216C
:104370000948FEF7EDFE36208DF8000001208DF88B
:10438000010000208DF8020001208DF8030068462E
:10439000FEF740F91FBD0000001000408AB0002564
:1043A000002600244FF47A7002F065FD3BE009A876
:1043B00001230522194600901B48006801F0EBFA22
:1043C000054675B9099801280BD1601C00EBD07126
:1043D0004910A0EB4101CCB2012C01D1012600E033
:1043E0000026012E1CD11148FDF70CF90F49086871
:1043F000C11700EB117109110D4A116010460DA192
:10440000026801A802F0FEFB07463B4601AA002114
:104410000A48006801F05CFA142002F02CFD02E06A
:10442000C82002F028FDC2E7600000203000002014
:104430003400002025640D0A000000006C000020FC
:10444000002107E042F6E06100BF0A1EA1F101036E
:1044500099B2FAD1021EA0F1010398B2F2D17047CD
:1044600070B503460022114D2D68114EB5FBF6F5CF
:1044700005FB03F44FF0E025A96913E04FF0E025B8
:10448000A86988420ED0884202D20D1A2A4405E05B
:104490004FF0E0256D692D1A0D442A440146A242D1
:1044A00000D300E0EAE700BF70BD0000000000207C
:1044B00040420F0010B5002005E018490144096989
:1044C000174A1150001D2028F7D3002005E013499A
:1044D0000144096C134A1150001D0628F7D31048F7
:1044E0000078FF280DD101200F49087020220F49C4
:1044F0000B48FBF7EDFE0B480D490A6802608988FE
:104500008180202206490948FBF7E2FE0848054958
:104510000A6802608988818010BD000000000E08D2
:10452000040100206C010020F8000020240100207C
:104530007201002070B5FCF739FE02215820FCF70B
:1045400095FD10491048FCF709FE002408E00F48CB
:1045500005590D49103160182946FCF7FFFD241D4F
:10456000202CF4D3002408E00948055906494031BD
:1045700060182946FCF7F2FD241D062CF4D3FCF745
:10458000E3FD70BD7856341200000E0804010020CF
:104590006C01002070B504460D46E1B20548FEF7F7
:1045A0009FFF00BF80210348FEF7FEFE0028F9D0E0
:1045B000204670BD001001402DED048B84B00A2010
:1045C00002F059FC0024002500BF00BF00BF00BF5F
:1045D00000BF774801AA43F21561836898479DF9A7
:1045E00008209DF9071002EB0120FCF70BF841ECC5
:1045F000180B9FED700B53EC102BFBF794FF41EC65
:10460000190B00BF00BF6D4800796D4908706B48F9
:1046100000786C490870C9E0FCF7ECFA6A4880ED54
:10462000000A90ED000ADFED690AB4EE600AF1EECF
:1046300010FA08D090ED000AF2EE0E0AB4EE600A0D
:10464000F1EE10FA05D1624890ED000A5E4880ED67
:10465000000A5D4890ED000A5D4880ED000A574869
:104660000078584908700846007818B90020544965
:10467000087003E051480079514908704C4801AA7C
:1046800043F21561836898479DF908209DF907104A
:1046900002EB0120FBF7B6FF41EC180B9FED450B39
:1046A00053EC102BFBF73FFF41EC190B03A8012340
:1046B0000522194600904748006801F06CF904464D
:1046C000002C25D10398012822D13D48007838B923
:1046D00041A001F0C7FC002501218807FEF738FD45
:1046E00037480078012807D13FA001F0BBFC012525
:1046F00001218807FEF72CFD31480078022807D1F8
:104700003FA001F0AFFC012501218807FEF720FD45
:10471000012D3ED12A480078012802D0022830D14C
:1047200017E0294890ED000AF3EE0B0AB4EEE00A18
:10473000F1EE10FA06DD42F6F8214FF08040FEF768
:10474000E2FD05E042F2DC314FF08040FEF7DBFD98
:104750001EE01D4890ED000ADFED2E0AB4EEE00ADF
:10476000F1EE10FA06DD42F6F8214FF08040FEF738
:10477000CAFD05E04FF4FF514FF08040FEF7C3FD46
:1047800006E042F6F8214FF08040FEF7BCFD00BF86
:1047900008E00A2002F06FFB42F6F8214FF080405B
:1047A000FEF7B1FD4FF4FA7002F065FB34E700004C
:1047B0009C01002000000000000069406C01002006
:1047C0002C0000202D000020240000200000AA4220
:1047D000280000205C00002053746F702048656141
:1047E00074696E67210D0A00537461727420536CF2
:1047F000696768742048656174696E67210D0A00F5
:1048000053746172742048656174696E67210D0A82
:104810000000000000001442002101E04A1C91B297
:104820008142FBD3704700002DE9F04106460D465A
:104830000024002700BF00E0641C04EB84005649FC
:1048400011F82000554909688842F5D104EB84002D
:10485000514901EB8000807B012809D1052E07D149
:104860004E49086000204E49087001204D490870EB
:1048700004EB8400484901EB8000807B022826D1AC
:10488000052E24D14548006801280DD14448007800
:10489000022809D101214448006801F0E9F801210A
:1048A0004248006801F0E4F804EB84003A4901EB67
:1048B0008000801C405D394908600020384908703C
:1048C0000120384908703A4908703A49087004EBE9
:1048D0008400314901EB8000807B032839D1052E0B
:1048E00037D12E48006802280AD101202B490860E0
:1048F00000202B49087001202A490870BDE8F0818A
:104900002648006804280DD1062D0BD10520234927
:1049100008600120234908702549087000202049BB
:104920000870EBE704EB84001B4901EB8000407842
:10493000401EA8420DD104EB840001EB8000801CD6
:10494000405D16490860002015490870012015498E
:10495000087004EB8400104901EB8000807B042880
:1049600017D10E480068052813D1052E11D104EB8C
:10497000840001EB8000801C405D08490860002035
:10498000074908700120074908700949087009495A
:10499000087000BFB2E70000800000207400002013
:1049A000780000207A0000205400002060000020E1
:1049B000790000207B00002070B505460C46012DD3
:1049C0001BD1012C05D1A1480078401E9F490870D9
:1049D00004E09E480078401C9C4908709B48007881
:1049E000032803DD02209949087006E09748007803
:1049F000032802D1002095490870022D1BD1012CFB
:104A000005D192480078401E9049087004E08F4814
:104A10000078401C8D4908708C480078062803DD1A
:104A200005208A49087006E088480078062802D1E7
:104A3000002086490870032D31D120228449854801
:104A4000FBF746FC01208449087084490870012C5A
:104A50000BD17E480078401E7C49087008460078DB
:104A600009280DD1062008700AE078480078401C1B
:104A70007649087008460078072801D10A20087096
:104A8000724800780B2803DD0A207049087006E0A0
:104A90006E4800780B2802D100206C490870042D64
:104AA00026D16F486F490A68026089888180012099
:104AB0006949087069490870012C05D1634800787C
:104AC000401E6249087004E060480078401C5F495D
:104AD00008705E480078082803DD07205B490870ED
:104AE00006E05A480078082802D10020574908708B
:104AF000052D71D101205949087054480078E8B952
:104B0000012C05D15848C078401E5749C87006E0AE
:104B1000022C04D15448C078401C5349C8705248F4
:104B2000C078642803DD63204F49C87006E04E4812
:104B3000C078642802D100204B49C87043480078EF
:104B400001281CD1012C05D147484078401E464918
:104B5000487006E0022C04D143484078401C42498A
:104B60004870414840780C2803DD00203E494870D9
:104B700005E03D48407810B90C203B494870334867
:104B8000007802281CD1012C05D137488078401EBE
:104B90003549887006E0022C04D133488078401CE7
:104BA00031498870304880781F2803DD01202E4964
:104BB000887005E02C48807810B91F202A49887039
:104BC0002248007803281ED1012C06D127480078FE
:104BD000401E2649087007E02FE0022C04D123482C
:104BE0000078401C2149087020480078182803DD0F
:104BF00017201E49087006E01C480078182802D1CA
:104C000000201A4908701148007804281DD1012C91
:104C100005D116484078401E1449487006E0022C21
:104C200004D112484078401C104948700F48407821
:104C30003C2803DD3B200D49487006E00B484078D6
:104C40003C2802D100200949487070BD780000203E
:104C50000401002024010020790000207B000020B6
:104C6000720100206C010020FE000020FA000020EC
:104C700010B50446F9480068032871D10120F849AD
:104C80000870F848007818BB032C05D1F648007866
:104C9000401EF549087006E0042C04D1F248007863
:104CA000401CF1490870F0480078042803DD022018
:104CB000ED49087006E0EC480078032802D1002096
:104CC000E9490870052C03D1E7480078E7490870E6
:104CD000E4480078012828D1032C05D1E248406837
:104CE0003238E149486006E0042C04D1DE484068CF
:104CF0003230DD494860DC48406840F602018842B5
:104D000003D10020D849486009E0D748406840F600
:104D10000201884203D94FF4FA60D3494860052C58
:104D200003D1D1484068D1494860CE480078022874
:104D300024D1032C05D1CC48007A401FCA490872FF
:104D400006E0042C04D1C848007A401DC649087208
:104D5000C548007A6E2804DD6420C349087207E064
:104D6000D8E0C148007A6E2802D10020BE490872FE
:104D7000052C03D1BC48007ABC490872B9480078B8
:104D8000032823D1032C05D1B748C068401EB6497B
:104D9000C86006E0042C04D1B348C068401CB24986
:104DA000C860B148C0681F2803D91E20AE49C8603A
:104DB00006E0AD48C0681F2802D10020AA49C8609B
:104DC000052C03D1A848C068A849C860A548007848
:104DD000042823D1032C05D1A3480069401EA24911
:104DE000086106E0042C04D19F480069401C9E49DC
:104DF00008619D4800691F2803D91E209A4908614F
:104E000006E0994800691F2802D1002096490861F0
:104E1000052C03D1944800699449086191480078B1
:104E2000052839D1032C09D18F4890ED050ADFED13
:104E3000900A30EE600A80ED050A0AE0042C08D1E1
:104E4000894890ED050ADFED8A0A30EE200A80EDF0
:104E5000050A854890ED050AF2EE040AB4EEE00A70
:104E6000F1EE10FA04DB9FED830A80ED050A0BE0FA
:104E70007D4890ED050AB5EEC00AF1EE10FA03D2B6
:104E80009FED7D0A80ED050A052C05D1764890ED51
:104E9000050A764880ED050A72480078062839D15F
:104EA000032C09D1704890ED060ADFED710A30EE4F
:104EB000600A80ED060A0AE0042C08D16A4890EDE9
:104EC000060ADFED6B0A30EE200A80ED060A66481E
:104ED00090ED060AF2EE040AB4EEE00AF1EE10FAE2
:104EE00004DB9FED640A80ED060A0BE05E4890ED5E
:104EF000060AB5EEC00AF1EE10FA03D29FED5E0A83
:104F000080ED060A052C05D1574890ED060A574852
:104F100080ED060A51480068042877D101205049E5
:104F200008705048007838BB032C0AD153480078E9
:104F3000401EC0B251490870FF280ED101200870F0
:104F40000BE0042C09D14D480078401CC0B24B49FD
:104F50000870022801DB00200870052C14D1474896
:104F600000784749087008460078012805D10121DA
:104F70004448006800F07CFD06E0414800780228C3
:104F800002D141A001F06EF836480078012822D104
:104F9000032C05D139484078401E3849487006E056
:104FA000042C04D135484078401C344948703348BB
:104FB0004078032803DD01203049487005E02F4880
:104FC000407810B903202D494870052C03D12B4897
:104FD00040782B49487023480078022823D1032CBD
:104FE00005D126488078401E2449887006E0042CAC
:104FF00004D122488078401C204988701F4880785E
:10500000022804DD01201D49887006E09AE01B4853
:10501000807810B9022019498870052C03D11748EF
:105020008078174988700F480078032841D1032CF5
:1050300005D11248C078401E1049C87006E0042C03
:1050400004D10E48C078401C0C49C8700B48C07889
:10505000032821DD01200949C87024E074000020E4
:105060007B000020780000202401002004010020A3
:10507000CDCCCC3D0000000066661E4172010020D0
:105080006C0100205C00002053746F702048656143
:1050900074696E67210D0A003F48C078022802D16A
:1050A00000203D49C870052C03D13B48C0783B49DE
:1050B000C8703B48007804281DD1032C09D136481C
:1050C0000079401EC0B23449087170B902200871DD
:1050D0000BE0042C09D130480079401CC0B22E49A5
:1050E0000871032801D101200871052C03D12A4839
:1050F00000792A4908712A480078052822D1032C12
:1051000005D125484079401E2349487106E0042C0A
:1051100004D121484079401C1F4948711E484079FC
:10512000032803DD01201C49487105E01A48407935
:1051300010B9032018494871052C03D1164840794D
:105140001649487117480068052820D101201649E2
:105150000870032C05D112480078401E10490870D1
:1051600006E0042C04D10E480078401C0C4908705D
:105170000B480078052803DD04200949087006E083
:1051800007480078052802D1002005490870052C41
:1051900001D1FFF7CFF910BD720100206C01002092
:1051A0007800002074000020790000201CB5012147
:1051B0005F20FDF799FB4FF46040009001208DF8CF
:1051C000040000208DF8060003208DF80500012062
:1051D0008DF8070069461048FCF79CF94FF46070A1
:1051E000009001208DF8040000208DF806000320B7
:1051F0008DF8050001208DF8070069460748FCF787
:1052000089F94FF460410448FCF7FAF94FF46071F2
:105210000248FCF7F5F91CBD0014024000100240E2
:105220001CB5FCF70FFC0020F0234FF4A0720146E0
:105230000090FCF7E2FBFFF73DF94DA000F0ABFA60
:105240004D4908600846006818B94CA14F48FEF760
:105250005AF900214EA000F08BFB51490860002153
:1052600050A000F085FB52490860002151A000F0D9
:105270007FFB55490860002154A000F079FB594993
:10528000086006204FF4FA6300225749009057A0A7
:1052900001F0D8FF5B4908600846006818B108466D
:1052A000006802F08DF8142003214FF400730022EF
:1052B000CDE90010544955A001F0B5FD59490860E9
:1052C0000846006801F0CCFE142002210B020022E7
:1052D000CDE90010544955A001F0A5FD57490860DB
:1052E0000846006801F0BCFE142001218023002242
:1052F000CDE90010524953A001F095FD55490860D1
:105300000846006801F0ACFE1E2003214FF4007334
:105310000022CDE90010504950A001F084FD52490F
:1053200008600846006801F09BFE14200221CB01B2
:105330000022CDE900104D494DA001F074FD524905
:1053400008600846006801F08BFE142003218023CA
:105350000022CDE900104D494DA001F064FD4F49F8
:1053600008600846006801F07BFE00201CBD0000BC
:1053700075617274320000006C00002066696E6412
:1053800020206661696C6564210A000000440040C9
:105390006B65746374726C5F6576656E7400000093
:1053A00054000020416C61726D5F6576656E74001B
:1053B000580000206B65746374726C5F74656D5F78
:1053C0006576656E740000005C00002064617461A5
:1053D0005F6163717569736974696F6E5F65766526
:1053E0006E74000060000020E9090008416C6172E1
:1053F0006D5F74696D65725F63616C6C6261636B34
:105400000000000064000020B945000868756D695F
:1054100064696669636174696F6E5F7468726561FF
:105420006400000044000020F51100084665617426
:105430007572655F74687265616400003C000020ED
:105440009D090008416C61726D5F746872656164EA
:1054500000000000400000203D780008746872657C
:1054600061645F6C63640000500000209D4300088D
:10547000646174615F6163717569736974696F6E8A
:105480005F746872656164004C000020A10A000826
:1054900063695F7468726561640000004800002001
:1054A00010B5044600F034F9FFF7BAFE10BD10B590
:1054B0000246012000E050430B1EA1F10104E1B2BD
:1054C000F9D110BD30B51A4C4368246819198842C7
:1054D00015D04B889BB9174B1B6899420FD0164BC0
:1054E0001B688B4201D1144B18604B684360104B12
:1054F0001B68C31A0E4D4C682D682C44A3600C4CDD
:10550000836824681A19824211D053887BB90A4BE8
:105510001B68834201D1084B1A6043685360044BF7
:105520001B68D31A024D44682D682C44A36030BD1B
:10553000BC0E0020C00E0020C40E00202DE9F04F4C
:1055400085B00D469C46DDE90F740E9B04F04008C3
:10555000B8F1000F02D0DFF8688101E0DFF8648164
:10556000CDF8008004F01008B8F1000F01D024F04D
:10557000010404F00108B8F1000F02D04FF0300828
:1055800001E04FF02008C246002604F00208B8F1FE
:10559000000F11D0002A02DA2D2652420CE004F04E
:1055A0000408B8F1000F01D02B2605E004F008082C
:1055B000B8F1000F00D02026002142B94FF0300B87
:1055C0008846491C0DF1040909F808B01DE01AE0ED
:1055D000E146B9F10A0F08D14FF00A0BB2FBFBFE0E
:1055E0000BFB1E28B2FBFBF202E002F00F081209CF
:1055F00000BFDDF8009019F808B08846491C0DF18D
:10560000040909F808B0002AE2D1B94200DD0F46CA
:10561000DB1B04F01108B8F1000F10D116B1002BFC
:1056200000DD5B1E06E0A84203D84FF0200880F89A
:105630000080401CB3F10008A3F10103F3DC26B1A4
:10564000A84201D806705B1E401C04F01008B8F197
:10565000000F0AD104E0A84201D880F800A0401C45
:10566000B3F10008A3F10103F5DC06E0A84203D87A
:105670004FF0300880F80080401CB8467F1E8845F7
:10568000F4DC08E0A84205D80DF1040818F8018000
:1056900080F80080401CB1F10008A1F10101F1DCAB
:1056A00006E0A84203D84FF0200880F80080401C94
:1056B000B3F10008A3F10103F3DC05B0BDE8F08FFE
:1056C000FF760108EE7601081CB5142002210B02BA
:1056D0000022CDE90010044904A001F0A4FB044617
:1056E000204601F0BDFC1CBDA15400086D61696E2F
:1056F0000000000010B5044C02E020688047241D23
:1057000002488442F9D310BD1477010818770108C4
:1057100010B5044C02E020688047241D02488442F2
:10572000F9D310BD187701081C77010870B505463C
:105730000A480668284600F02EF8044664B1074877
:10574000006818B10548006800F00AF843212046B7
:1057500000F04AF801480460304670BDB80E0020E1
:1057600070B504460025A07E08B9681E70BDA07EF5
:10577000401EA076A07E08B10020F7E7E06A18B1CD
:105780002046E16A884705460DB1A81D08B90020EA
:1057900020832846EAE72DE9F041064601F038FC6F
:1057A00008B100F0D5F8082000F032FE05466C681C
:1057B00010E0A4F10C0708223146384601F03CFA0B
:1057C00038B901F025FC08B100F0ACF93846BDE865
:1057D000F0812468281D8442EBD101F019FC08B146
:1057E00000F0A0F90020F2E770B504460E4600254F
:1057F000A07D00F0100088B9606A58B12046616A47
:105800008847054635B12A46214616A000F02AFCF5
:10581000284670BDE08A40F01000E082A07D00F0D4
:10582000080030B1207E00F0080010B16FF00600D3
:10583000EFE7A06A28B131462046A26A90470546A4
:1058400003E040F60F70304020830DB1A81D30B941
:10585000208B40F008002083A07E401CA0762846C4
:10586000D7E70000546F20696E697469616C697ACA
:1058700065206465766963653A2573206661696CA5
:1058800065642E20546865206572726F7220636FA4
:1058900064652069732025640A00000070B5044621
:1058A0000D46164614B94FF0FF3070BD2846FFF77D
:1058B00072FF10B14FF0FF30F7E72A46082120466B
:1058C00000F0BAFDE6820020A076208300BFECE75E
:1058D0002DE9F04104460D4616461F46A07E30B91C
:1058E0004FF0FF3001F022F90020BDE8F081606B3D
:1058F00038B13B46324629462046D4F834C0E0470A
:10590000F3E76FF0050001F011F90020EDE710B5A5
:1059100004462046FEF7ACFC10BD30B50246D06C04
:10592000836813B109B100238360C3880B44C3802B
:10593000C488936CC3F38F239C4208DDC488936CA6
:10594000C3F38F2394FBF3F503FB1543C38030BDF2
:1059500010B5FAF735FC044604480088401C00B234
:10596000024908802046FAF72FFC10BD440F0020A2
:1059700070B505460E462946032000F007FD044693
:105980000CB9204670BD6672204600F063FB002013
:10599000E0612046F6E72DE9FF4705460E4617462B
:1059A000DDF8308026B94FF0FF3004B0BDE8F08755
:1059B0004FF0FF3901F02CFB044600202063FAF77A
:1059C000FFFB824607F0010030B1E8693040B04289
:1059D0000AD14FF0000907E007F0020020B1E869A2
:1059E000304008B14FF00009B9F1000F0DD1B8F106
:1059F000000F03D0E8693040C8F8000007F0040049
:105A000088B3E869B043E8612DE0039818B96FF0F6
:105A10000100206327E0E66384F840706A7A21463B
:105A200005F1140000F0E0FA0398002809DD03AA4C
:105A3000002104F14C0001F0E9FB04F14C0001F0FD
:105A400043FC5046FAF7C0FB00F01EFD206B08B186
:105A5000206BAAE7FAF7B4FB8246B8F1000F02D038
:105A6000E06BC8F800005046FAF7AEFB206B9CE7ED
:105A70002DE9F04704460F461FB94FF0FF30BDE84F
:105A8000F0874FF00008FAF79BFB8246E069384345
:105A9000E06104F1140000F03EFB002838D1666993
:105AA00032E0A6F114054FF0FF3995F8400000F000
:105AB000010040B1E86BE1690840E96B884211D10F
:105AC0004FF000090EE095F8400000F0020048B1E8
:105AD000E86BE169084028B1E86BE1690840E863D8
